:020000040800F2
:1000000000800020350D00088909000891090008CA
:1000100099090008A1090008A909000800000000CA
:10002000000000000000000000000000B10900080E
:10003000BF09000800000000CD090008DB09000826
:10004000850D0008850D0008850D0008850D000848
:10005000850D0008850D0008850D0008850D000838
:10006000850D0008850D0008850D0008E9090008C8
:10007000850D0008850D0008850D0008850D000818
:10008000850D000800000000850D0008850D0008A2
:10009000FD090008850D0008850D0008850D000884
:1000A000850D0008850D0008850D0008850D0008E8
:1000B000850D0008850D0008850D0008850D0008D8
:1000C000850D0008850D0008850D0008850D0008C8
:1000D000850D0008850D0008850D0008850D0008B8
:1000E000850D0008850D0008850D0008850D0008A8
:1000F000850D0008850D0008850D00080000000032
:1001000000000000850D000800000000850D0008BB
:10011000110A000800000000850D0008850D000888
:10012000850D0008850D0008850D0008850D000867
:10013000850D00080000000000000000850D00088B
:10014000850D0008850D000800000000000000007B
:10015000000000000000000000000000000000009F
:10016000000000000000000000000000850D0008F5
:10017000850D0008000000000000000000000000E5
:1001800000000000850D00080000000000000000D5
:10019000000000000000000000000000000000005F
:1001A0000000000000000000850D0008850D00081B
:1001B000850D0008850D0008850D00080000000071
:1001C00000000000850D0008000000000000000095
:0801D000850D0008850D0008F3
:1001E00010B5054C237833B9044B13B10448AFF371
:1001F00000800123237010BD440300200000000094
:1002000058B5000808B5034B1BB103490348AFF3C9
:10021000008008BD000000004803002058B5000819
:1002200001F0FF01102A2BDB10F0070F08D010F8A7
:10023000013B013A8B422DD010F0070F42B3F6D1AB
:10024000F0B441EA012141EA014122F007047FF0C4
:1002500000070023F0E80256083C85EA010586EA1B
:10026000010685FA47F5A3FA87F586FA47F6A5FA57
:1002700087F68EB9EED1F0BC01F0FF0102F0070263
:1002800032B110F8013B013A83EA010313B1F8D10E
:100290000020704701387047002D06BF35460338EF
:1002A000073815F0010F07D1013015F4807F02BF28
:1002B000013015F4C03F0130F0BC0138704700BF79
:1002C00053B94AB9002908BF00281CBF4FF0FF31BD
:1002D0004FF0FF3000F088B9ADF1080C6DE904CEA5
:1002E00000F006F8DDF804E0DDE9022304B0704711
:1002F0002DE9F047089D8E4604468846002B4AD1DA
:100300008A42174662D9B2FA82F64EB1C6F120038C
:1003100001FA06F820FA03F3B74043EA0808B440AC
:100320004FEA174E1FFA87FCB8FBFEF1230C0EFBB9
:10033000118843EA084301FB0CF29A4209D9FB18E1
:1003400001F1FF3080F0EA809A4240F2E780023902
:100350003B449A1AA3B2B2FBFEF00EFB102243EA12
:10036000024300FB0CFC9C4509D9FB1800F1FF324D
:1003700080F0D6809C4540F2D3803B44023840EA6E
:100380000140A3EB0C0300211DB1F3400022C5E99D
:100390000032BDE8F0878B4205D90DB1C5E90001F7
:1003A00000210846F5E7B3FA83F1002946D17345E9
:1003B00002D3824200F20581841A6EEB030201200F
:1003C0009046002DE5D0C5E90048E2E7002A00F09C
:1003D0009080B2FA82F6002E40F0A4808A1A030CB4
:1003E0004FEA174E80B2BCB20121B2FBFEFC0EFBFD
:1003F0001C2243EA024304FB0CF29A4207D9FB1881
:100400000CF1FF3802D29A4200F2E080C4469B1AF7
:10041000B3FBFEF20EFB123340EA034302FB04F48B
:100420009C4207D9FB1802F1FF3002D29C4200F235
:10043000CA8002461B1B42EA0C40A5E7C1F1200618
:100440008B4022FA06F71F430EFA01F420FA06F356
:100450002EFA06FE4FEA1749234300FA01F81FFA65
:1004600087FCBEFBF9F01C0C09FB10EE44EA0E44BD
:1004700000FB0CFEA64502FA01F209D93C1900F175
:10048000FF3A80F09C80A64540F2998002383C44B7
:10049000A4EB0E041FFA83FEB4FBF9F309FB13442B
:1004A0004EEA044403FB0CFCA44508D93C1903F1B3
:1004B000FF3E80F08280A4457FD9023B3C4443EA62
:1004C0000040A4EB0C04A0FB02EC64457346E1463B
:1004D00062D35FD05DB1B8EB030264EB090404FAA8
:1004E00006F622FA01F31E43CC40C5E90064002160
:1004F0004FE7B1FBF2FC010C41EA0E4180B240EA49
:1005000001423B4638463C46B846BE462026B1FB33
:10051000F7F1A2EB080241EA0C4166E7014618E751
:1005200010462CE7C6F120022EFA02F3B740B14084
:1005300020FA02F24FEA174E0A43B3FBFEF8BCB2B0
:100540000EFB1833110C41EA034108FB04F9B040DB
:1005500089454FEA104380B23ED9791808F1FF3C33
:1005600001D289451FD8A1EB0901B1FBFEF909FBB6
:1005700004F80EFB191192B242EA0142424529D217
:10058000BA1809F1FF31C4D24245C2D2A9F1020121
:100590003A44BEE7F0459DD2BEEB02036CEB070C7C
:1005A0000138E14696E7A7EB09094944A8F1020C96
:1005B000B1FBFEF909FB04F8DBE773467FE7504621
:1005C00066E70846FDE63B44023A33E7ACF1020C2D
:1005D0003B441CE749469CE7A1EB0901C446B1FB3B
:1005E000FEF909FB04F8C4E7704700BF80B582B08C
:1005F00000AF124B9B6C114A43F0040393640F4B02
:100600009B6C03F004037B607B680C4B9B6C0B4A78
:1006100043F001039364094B9B6C03F001033B60BF
:100620003B68002200210B2000F01BFD0B2000F096
:1006300032FD00BF0837BD4680BD00BF001002403C
:1006400080B58AB000AF07F1140300221A605A6027
:100650009A60DA601A612D4BDB6C2C4A43F0200360
:10066000D3642A4BDB6C03F020033B613B69274BCF
:10067000DB6C264A43F00103D364244BDB6C03F0AC
:100680000103FB60FB68214BDB6C204A43F0040351
:10069000D3641E4BDB6C03F00403BB60BB681B4BD5
:1006A000DB6C1A4A43F00203D364184BDB6C03F093
:1006B00002037B607B68FF237B610023BB61012316
:1006C000FB6107F1140319464FF0904001F04EF81A
:1006D00010237B614FF48813BB610123FB6107F199
:1006E000140319460A4801F041F840F607437B61BC
:1006F0000023BB610123FB6107F114031946054880
:1007000001F034F800BF2837BD4680BD001002401C
:10071000000800480004004880B588B000AF4FF0E2
:1007200090431B699BB2C3F30B03FB82264B1B88D0
:10073000FA8A9A4243D0052000F096FB4FF090438E
:100740001B699BB2C3F30B03FB821F4B1B88FA8A06
:100750009A4234D03B4600221A605A609A60DA60AE
:10076000C3F80F2001233B700323FB770023BB61F9
:1007700019E0FA8ABB6942FA03F303F00103002B84
:100780000ED0FB7F122B0BD8FB7F1049BA690A44AD
:10079000127820333B4403F8202CFB7F0133FB7796
:1007A000BB690133BB61BB690B2BE2DD3B46132206
:1007B0001946074808F030FE034AFB8A138000BF41
:1007C0002037BD4680BD00BF60050020E4B50008AD
:1007D0003C09002080B500AF00F0D5FA00F028F801
:1007E000FFF72EFFFFF702FF00F040FA00F062F97A
:1007F00007F0FAF94FF400720B490C4805F0B9FA0A
:100800000346002B01D000F095F8084BD3F8803058
:100810001B681A68054BD3F880301B6822F004026D
:100820001A60FFF779FFFCE76003002068050020ED
:1008300080B594B000AF07F11803382200211846A4
:100840000AF00CFA3B1D00221A605A609A60DA60C6
:100850001A61002002F06AFE2223BB614FF480730C
:100860007B624023BB6201233B6302237B63022341
:10087000BB630423FB6355233B6402237B64022395
:10088000BB640223FB6407F11803184602F002FF61
:100890000346002B01D000F04DF80F237B600323AB
:1008A000BB600023FB6000233B6100237B613B1D99
:1008B0000421184603F000FA0346002B01D000F093
:1008C00039F800BF5037BD4680BD000080B582B00A
:1008D00000AF78600B467B807B681B68124A9342AE
:1008E0001DD1124803F044FE7B88002B05D07B8885
:1008F0001A460F49002007F0D1FA4FF400720C4954
:100900000A4805F036FA7B68D3F880301B681A680D
:100910007B68D3F880301B6822F004021A6000BFA5
:100920000837BD4680BD00BF004C00406805002070
:100930006003002080B400AF72B600BF00BFFDE7C7
:1009400080B582B000AF0F4B1B6E0E4A43F001031F
:1009500013660C4B1B6E03F001037B607B68094B35
:100960009B6D084A43F080539365064B9B6D03F0E3
:1009700080533B603B6802F07DFE00BF0837BD46F8
:1009800080BD00BF0010024080B400AF00BFFDE793
:1009900080B400AF00BFFDE780B400AF00BFFDE74B
:1009A00080B400AF00BFFDE780B400AF00BFFDE73B
:1009B00080B400AF00BFBD465DF8047B704780B4D3
:1009C00000AF00BFBD465DF8047B704780B400AF48
:1009D00000BFBD465DF8047B704780B500AF00F0F6
:1009E00025FA00BF80BD000080B500AF024800F0CE
:1009F00055FD00BF80BD00BFFC05002080B500AFE5
:100A0000024801F02FF900BF80BD00BF5C06002046
:100A100080B500AF024803F041FE00BF80BD00BFBB
:100A20006805002080B586B000AF7860144A154B89
:100A3000D31A7B617B693B61134B1B68002B02D18E
:100A4000114B124A1A60104B1A687B6813443A69BA
:100A50009A4207D20AF00AF903460C221A604FF0B4
:100A6000FF3309E0084B1B68FB60074B1A687B6883
:100A70001344054A1360FB6818461837BD4680BD0D
:100A8000008000200010000064050020801300207A
:100A900080B400AF064BD3F88830054A43F47003A6
:100AA000C2F8883000BFBD465DF8047B704700BFC8
:100AB00000ED00E080B500AF224B234A1A60214BC5
:100AC0004FF461325A601F4B00229A601D4B002286
:100AD000DA601C4B00221A611A4B0C225A61194B26
:100AE00000229A61174B0022DA61164B00221A622B
:100AF000144B00225A62134B00229A62114803F0F1
:100B0000E7FC0346002B01D0FFF714FF00210D483E
:100B100005F0B3F80346002B01D0FFF70BFF0021CF
:100B2000084805F0E8F80346002B01D0FFF702FF64
:100B3000044805F069F80346002B01D0FFF7FAFEE0
:100B400000BF80BD68050020004C004080B59AB011
:100B500000AF786007F1540300221A605A609A606F
:100B6000DA601A6107F110034422002118460AF0E6
:100B700075F87B681B68384A934268D108233B614B
:100B800000233B6207F11003184603F0B1FA034655
:100B9000002B01D0FFF7CEFE304B9B6D2F4A43F464
:100BA000002393652D4B9B6D03F40023FB60FB68D2
:100BB0002A4BDB6C294A43F00403D364274BDB6CDC
:100BC00003F00403BB60BB684FF440637B65022302
:100BD000BB650023FB6500233B6605237B6607F1AD
:100BE000540319461E4800F0C1FD1E4B1E4A1A60F0
:100BF0001C4B1E225A601B4B00229A60194B00228C
:100C0000DA60184B80221A61164B00225A61154B8C
:100C100000229A61134B2022DA61124B00221A62E1
:100C2000104800F053FA0346002B01D0FFF782FE74
:100C30007B680C4AC3F880200A4A7B6893620022D2
:100C40000021342000F00DFA342000F024FA00BF17
:100C50006837BD4680BD00BF004C00400010024018
:100C600000080048FC0500200800024080B500AFE5
:100C7000104B114A1A600F4B08221A710D4B0222B9
:100C80005A710C4B0222DA710A4B00221A72094B7C
:100C900000225A72074B00229A72064B0022DA7227
:100CA000044800F0EFFE0346002B01D0FFF742FEA0
:100CB00000BF80BD5C060020005C004080B594B0A1
:100CC00000AF786007F10C0344220021184609F0B8
:100CD000C5FF7B681B68154A934222D14FF400532D
:100CE000FB6000233B6407F10C03184603F000FA95
:100CF0000346002B01D0FFF71DFE0D4B9B6D0C4AE8
:100D000043F4000393650A4B9B6D03F40003BB603F
:100D1000BB6800220021142000F0A3F9142000F089
:100D2000BAF900BF5037BD4680BD00BF005C00402F
:100D3000001002400D488546FFF7AAFE0C480D49F9
:100D40000D4A002302E0D458C4500433C4188C4226
:100D5000F9D30A4A0A4C002301E013600432A2428C
:100D6000FBD309F089FFFFF735FDFEE70080002087
:100D7000000000204403002074B600084403002053
:100D800080130020FEE780B582B000AF0023FB7126
:100D9000032000F05BF90F2000F00EF80346002B53
:100DA00002D00123FB7101E0FFF7CAFDFB79184671
:100DB0000837BD4680BD000080B584B000AF7860C4
:100DC0000023FB73164B1B68002B22D0154B1A68AF
:100DD000134B1B684FF47A71B1FBF3F3B2FBF3F3DF
:100DE000184600F066F90346002B0FD17B680F2BE5
:100DF00009D8002279684FF0FF3000F032F90A4A32
:100E00007B68136007E00123FB7304E00123FB739D
:100E100001E00123FB73FB7B18461037BD4680BD04
:100E200008000020000000200400002080B400AF73
:100E3000054B1A68054B1B681344034A136000BF37
:100E4000BD465DF8047B704738090020080000208B
:100E500080B400AF034B1B681846BD465DF8047BA9
:100E6000704700BF3809002080B584B000AF7860BB
:100E7000FFF7EEFFB8607B68FB60FB68B3F1FF3FF4
:100E800004D0094B1B68FA681344FB6000BFFFF7EE
:100E9000DFFF0246BB68D31AFA689A42F7D800BF50
:100EA00000BF1037BD4680BD0800002080B485B06B
:100EB00000AF78607B6803F00703FB600C4BDB68D6
:100EC000BB60BA684FF6FF031340BB60FB681A02B1
:100ED000BB68134343F0BF6343F40033BB60044A71
:100EE000BB68D36000BF1437BD465DF8047B704714
:100EF00000ED00E080B400AF044BDB681B0A03F098
:100F000007031846BD465DF8047B704700ED00E01E
:100F100080B483B000AF0346FB7197F90730002B14
:100F20000BDBFB7903F01F02074997F907305B09D8
:100F3000012000FA02F241F8232000BF0C37BD4621
:100F40005DF8047B704700BF00E100E080B483B02F
:100F500000AF03463960FB7197F90730002B0ADBBD
:100F60003B68DAB20C4997F907301201D2B20B4450
:100F700083F800230AE03B68DAB20849FB7903F002
:100F80000F03043B1201D2B20B441A7600BF0C3798
:100F9000BD465DF8047B704700E100E000ED00E035
:100FA00080B489B000AFF860B9607A60FB6803F084
:100FB0000703FB61FB69C3F10703042B28BF04236C
:100FC000BB61FB690433062B02D9FB69033B00E0DC
:100FD00000237B614FF0FF32BB6902FA03F3DA436F
:100FE000BB681A407B699A404FF0FF317B6901FA78
:100FF00003F3D9437B680B40134318462437BD469F
:101000005DF8047B7047000080B582B000AF786067
:101010007B68013BB3F1807F01D301230FE00A4AD3
:101020007B68013B53600F214FF0FF30FFF78EFFCD
:10103000054B00229A60044B07221A6000231846D1
:101040000837BD4680BD00BF10E000E080B582B02B
:1010500000AF78607868FFF729FF00BF0837BD460A
:1010600080BD80B586B000AF0346B9607A60FB737F
:10107000FFF740FF78617A68B9687869FFF790FFF9
:10108000024697F90F3011461846FFF75FFF00BF81
:101090001837BD4680BD80B582B000AF0346FB71F6
:1010A00097F907301846FFF733FF00BF0837BD46F2
:1010B00080BD80B582B000AF78607868FFF7A4FF8C
:1010C000034618460837BD4680BD000080B584B091
:1010D00000AF78607B68002B01D101238EE07B6834
:1010E0001B681A46474B9A420FD87B681B681A4602
:1010F000454B1344454AA2FB03231B099A007B6816
:101100005A647B68424A1A640EE07B681B681A4680
:10111000404B13443D4AA2FB03231B099A007B6802
:101120005A647B683C4A1A647B68022283F8252053
:101130007B681B681B68FB60FB6823F4FF4323F09C
:101140007003FB607B689A687B68DB681A437B6886
:101150001B691A437B685B691A437B689B691A4366
:101160007B68DB691A437B681B6A1343FA68134385
:10117000FB607B681B68FA681A60786800F088FA80
:101180007B689B68B3F5804F02D17B6800225A6070
:101190007B685A687B689B6C02F07F021A607B68F0
:1011A000DB6C7A68126D5A607B685B68002B10D02C
:1011B0007B685B68042B0CD8786800F0B1FA7B6818
:1011C0005B6D00221A607B689B6D7A68D26D5A60F5
:1011D00008E07B6800225A657B6800229A657B687C
:1011E0000022DA657B680022DA637B68012283F8DB
:1011F00025207B68002283F824200023184610371E
:10120000BD4680BD07040240F8FFFDBFCDCCCCCC6D
:1012100000000240F8FBFDBF0004024080B586B02C
:1012200000AFF860B9607A603B600023FB75FB6833
:1012300093F82430012B01D1022366E0FB680122E0
:1012400083F82420FB6893F82530DBB2012B55D1BD
:10125000FB68022283F82520FB680022DA63FB6822
:101260001B681A68FB681B6822F001021A603B6861
:101270007A68B968F86800F0CCF9FB681B6B002B42
:1012800008D0FB681B681A68FB681B6842F00E02F6
:101290001A600FE0FB681B681A68FB681B6822F085
:1012A00004021A60FB681B681A68FB681B6842F03E
:1012B0000A021A60FB689B6C1B6803F48033002BE6
:1012C00007D0FB689B6C1A68FB689B6C42F48072C9
:1012D0001A60FB685B6D002B07D0FB685B6D1A68BA
:1012E000FB685B6D42F480721A60FB681B681A68C9
:1012F000FB681B6842F001021A6005E0FB680022EF
:1013000083F824200223FB75FB7D18461837BD4661
:1013100080BD80B485B000AF78600023FB737B682C
:10132000002B01D101234CE07B6893F82530DBB220
:10133000022B05D07B680422DA630123FB7337E0BC
:101340007B681B681A687B681B6822F001021A60C0
:101350007B681B681A687B681B6822F00E021A60A3
:101360007B689B6C1A687B689B6C22F480721A60A5
:101370007B685B6C03F01F027B681B6C012101FA28
:1013800002F25A607B68DB6C7A68126D5A607B6887
:101390005B6D002B0CD07B685B6D1A687B685B6DA6
:1013A00022F480721A607B689B6D7A68D26D5A60F5
:1013B0007B68012283F825207B68002283F82420A3
:1013C000FB7B18461437BD465DF8047B704780B53B
:1013D00084B000AF78600023FB737B6893F82530FE
:1013E000DBB2022B0DD07B680422DA637B6801221A
:1013F00083F825207B68002283F824200123FB73D7
:1014000047E07B681B681A687B681B6822F0010252
:101410001A607B681B681A687B681B6822F00E02E2
:101420001A607B689B6C1A687B689B6C22F48072E4
:101430001A607B685B6C03F01F027B681B6C0121E8
:1014400001FA02F25A607B68DB6C7A68126D5A60AE
:101450007B685B6D002B0CD07B685B6D1A687B68CA
:101460005B6D22F480721A607B689B6D7A68D26D26
:101470005A607B68012283F825207B68002283F86C
:1014800024207B689B6B002B03D07B689B6B786868
:101490009847FB7B18461037BD4680BD80B584B0A9
:1014A00000AF78607B681B6C1B68FB607B681B6807
:1014B0001B68BB607B685B6C03F01F0304229A40CF
:1014C000FB681340002B26D0BB6803F00403002BFD
:1014D00021D07B681B681B6803F02003002B07D119
:1014E0007B681B681A687B681B6822F004021A601C
:1014F0007B685B6C03F01F027B681B6C042101FAA4
:1015000002F25A607B681B6B002B71D07B681B6BEF
:10151000786898476CE07B685B6C03F01F030222DD
:101520009A40FB681340002B2ED0BB6803F00203E7
:10153000002B29D07B681B681B6803F02003002B5D
:101540000BD17B681B681A687B681B6822F00A0253
:101550001A607B68012283F825207B685B6C03F0AE
:101560001F027B681B6C022101FA02F25A607B6841
:10157000002283F824207B68DB6A002B38D07B684C
:10158000DB6A7868984733E07B685B6C03F01F0385
:1015900008229A40FB681340002B2AD0BB6803F056
:1015A0000803002B25D07B681B681A687B681B68C2
:1015B00022F00E021A607B685B6C03F01F027B68EE
:1015C0001B6C012101FA02F25A607B680122DA6386
:1015D0007B68012283F825207B68002283F8242081
:1015E0007B685B6B002B04D07B685B6B78689847EB
:1015F00000BF00BF1037BD4680BD80B483B000AFD0
:1016000078607B68DB6B18460C37BD465DF8047B61
:10161000704780B485B000AFF860B9607A603B6015
:10162000FB68DB6CFA68126D5A60FB685B6D002B1F
:1016300004D0FB689B6DFA68D26D5A60FB685B6CE6
:1016400003F01F02FB681B6C012101FA02F25A60D1
:10165000FB681B683A685A60FB689B68102B08D1CE
:10166000FB681B687A689A60FB681B68BA68DA6076
:1016700007E0FB681B68BA689A60FB681B687A68B9
:10168000DA6000BF1437BD465DF8047B7047000088
:1016900080B487B000AF78607B681B681A461B4B2C
:1016A0009A420BD81A4B3B617B681B68DBB2083B44
:1016B000184AA2FB03231B097B610BE0164B3B611D
:1016C0007B681B68DBB2083B124AA2FB03231B09A1
:1016D00006337B613B69FB607B685B6C9B089A000F
:1016E000FB6813441A467B689A647B680B4ADA6489
:1016F0007B6903F01F0301229A407B681A6500BFD3
:101700001C37BD465DF8047B704700BF07040240EC
:1017100000080240CDCCCCCC20080240800802401A
:1017200080B485B000AF78607B685B6803F07F03AE
:10173000FB60FA680B4B13449B001A467B685A65A2
:101740007B68094A9A65FB68013B03F01F0301228D
:101750009A407B68DA6500BF1437BD465DF8047BAC
:10176000704700BF3F8200104009024080B487B03C
:1017700000AF7860396000237B6164E13B681A68E0
:1017800001217B6901FA03F31340FB60FB68002B26
:1017900000F056813B685B6803F00303012B05D022
:1017A0003B685B6803F00303022B30D17B689B68C6
:1017B0003B617B695B00032202FA03F3DB433A6976
:1017C00013403B613B68DA687B695B0002FA03F314
:1017D0003A6913433B617B683A699A607B685B684E
:1017E0003B6101227B6902FA03F3DB433A69134050
:1017F0003B613B685B681B0903F001027B6902FAED
:1018000003F33A6913433B617B683A695A603B686A
:101810005B6803F00303032B09D13B685B6803F0AB
:101820000303032B1BD13B689B68012B17D07B68FC
:10183000DB683B617B695B00032202FA03F3DB4355
:101840003A6913403B613B689A687B695B0002FA26
:1018500003F33A6913433B617B683A69DA603B689A
:101860005B6803F00303022B23D17B69DA087B68F2
:10187000083253F822303B617B6903F007039B0079
:101880000F2202FA03F3DB433A6913403B613B68E2
:101890001A697B6903F007039B0002FA03F33A69B4
:1018A00013433B617B69DA087B680832396943F886
:1018B00022107B681B683B617B695B00032202FA94
:1018C00003F3DB433A6913403B613B685B6803F019
:1018D00003027B695B0002FA03F33A6913433B613D
:1018E0007B683A691A603B685B6803F44033002BFD
:1018F00000F0A6805B4B1B6E5A4A43F0010313664F
:10190000584B1B6E03F00103BB60BB68564A7B69F2
:101910009B08023352F823303B617B6903F00303D9
:101920009B000F2202FA03F3DB433A6913403B6149
:101930007B68B3F1904F1FD07B684C4A934219D01B
:101940007B684B4A934213D07B684A4A93420DD03E
:101950007B68494A934207D07B68484A934201D149
:1019600005230AE0062308E0042306E0032304E03D
:10197000022302E0012300E000237A6902F003025F
:10198000920093403A6913433B6137497B699B0856
:1019900002333A6941F82320394B9B683B61FB686D
:1019A000DB433A6913403B613B685B6803F4801397
:1019B000002B03D03A69FB6813433B61304A3B6913
:1019C00093602F4BDB683B61FB68DB433A69134054
:1019D0003B613B685B6803F40013002B03D03A695A
:1019E000FB6813433B61264A3B69D360244B5B6829
:1019F0003B61FB68DB433A6913403B613B685B68D2
:101A000003F40033002B03D03A69FB6813433B61B6
:101A10001B4A3B6953601A4B1B683B61FB68DB4305
:101A20003A6913403B613B685B6803F48033002BE9
:101A300003D03A69FB6813433B61114A3B69136069
:101A40007B6901337B613B681A687B6922FA03F387
:101A5000002B7FF493AE00BF00BF1C37BD465DF87E
:101A6000047B704700100240000001400004004861
:101A700000080048000C004800100048001400480E
:101A80000004014080B584B000AF78607B68002B13
:101A900001D10123C0E07B6893F89132DBB2002BC7
:101AA00006D17B68002283F890227868FFF706F958
:101AB0007B68032283F891227B681B68184604F038
:101AC00012FA0023FB733EE0FA7B796813469B0011
:101AD0001344DB000B44113301221A70FA7B79683E
:101AE00013469B001344DB000B441033FA7B1A703F
:101AF000FA7B796813469B001344DB000B441333D5
:101B000000221A70FA7B796813469B001344DB00AD
:101B10000B44203300221A60FA7B796813469B003D
:101B20001344DB000B44243300221A60FB7B7968EA
:101B30005A1C13469B001344DB000B4400221A601E
:101B4000FB7B0133FB737B681B79FA7B9A42BBD327
:101B50000023FB7344E0FA7B796813469B0013442F
:101B6000DB000B4403F2511300221A70FA7B7968F0
:101B700013469B001344DB000B4403F5A873FA7B68
:101B80001A70FA7B796813469B001344DB000B4400
:101B900003F2531300221A70FA7B796813469B00F4
:101BA0001344DB000B4403F5B07300221A60FA7B88
:101BB000796813469B001344DB000B4403F5B273B2
:101BC00000221A60FA7B796813469B001344DB00FD
:101BD0000B4403F5B47300221A60FB7B0133FB73E3
:101BE0007B681B79FA7B9A42B5D37B6818687B685F
:101BF000043393E8060004F091F97B6800221A731D
:101C00007B68012283F891227B689B7A012B02D1A9
:101C1000786801F055FC002318461037BD4680BD9A
:101C200080B582B000AF78607B6893F89032012B6A
:101C300001D1022312E07B68012283F890227B68A5
:101C40001B68184604F038F97B681B68184605F0D5
:101C500015FF7B68002283F890220023184608377E
:101C6000BD4680BD80B584B000AF78607B681B68DE
:101C7000184605F01AFFF860FB6803F40043002BD8
:101C800003D0786800F006FB10E1FB6803F4806382
:101C9000002B13D07B681B68B3F844309AB27B6882
:101CA0001B6822F4806292B2A3F84420786808F09E
:101CB00079FD0021786800F0FCF8F7E0FB6803F498
:101CC0008043002B0CD07B681B68B3F844309AB279
:101CD0007B681B6822F4804292B2A3F84420E5E0BE
:101CE000FB6803F40053002B0CD07B681B68B3F82F
:101CF00044309AB27B681B6822F4005292B2A3F877
:101D00004420D3E0FB6803F48053002B34D07B687D
:101D10001B68B3F840309AB27B681B6822F004025B
:101D200092B2A3F840207B681B68B3F840309AB2A7
:101D30007B681B6822F0080292B2A3F840207B68FF
:101D400093F8C832012B07D17B68002283F8C822A0
:101D50000021786801F0DEFB786808F052FD7B68AE
:101D60001B68B3F844309AB27B681B6822F4805237
:101D700092B2A3F8442099E0FB6803F40063002BBF
:101D800027D07B681B68B3F840309AB27B681B6829
:101D900042F0080292B2A3F840207B681B68B3F8B7
:101DA00044309AB27B681B6822F4006292B2A3F8B6
:101DB00044207B681B68B3F840309AB27B681B688C
:101DC00042F0040292B2A3F84020786808F00BFDBC
:101DD0006CE0FB6803F08003002B40D07B681B683D
:101DE000B3F844309AB27B681B6822F0800292B24A
:101DF000A3F844207B6893F8C832002B2BD17B6872
:101E00001B68B3F840309AB27B681B6842F004024A
:101E100092B2A3F840207B681B68B3F840309AB2B6
:101E20007B681B6842F0080292B2A3F840207B68EE
:101E3000012283F8C8227B681B68B3F854309BB238
:101E40009B0803F03C027B68C3F8CC220121786830
:101E500001F060FB2AE0786808F0C5FC26E0FB682A
:101E600003F40073002B0FD07B681B68B3F8443079
:101E70009AB27B681B6822F4007292B2A3F84420E5
:101E8000786808F081FC11E0FB6803F48073002B94
:101E90000CD07B681B68B3F844309AB27B681B682F
:101EA00022F4807292B2A3F8442000BF1037BD46DE
:101EB00080BD80B582B000AF78600B46FB707B6858
:101EC00093F89032012B01D1022312E07B680122AA
:101ED00083F890227B68FA781A737B681B68FA781B
:101EE0001146184605F0B6FD7B68002283F8902263
:101EF000002318460837BD4680BD80B584B000AFCA
:101F00007860084611461A460346FB700B463B8034
:101F10001346BB700023FB7297F90330002B0EDAD7
:101F2000FB7803F0070213469B001344DB001033D9
:101F30007A681344FB60FB6801225A700EE0FB785C
:101F400003F0070213469B001344DB0003F5A8735C
:101F50007A681344FB60FB6800225A70FB7803F038
:101F60000703DAB2FB681A703B88C3F30A02FB6806
:101F70001A61FB68BA78DA70BB78022B02D1FB6871
:101F800000221A717B6893F89032012B01D1022351
:101F90000EE07B68012283F890227B681B68F96859
:101FA000184603F0D9FF7B68002283F89022FB7A61
:101FB00018461037BD4680BD80B584B000AF78604C
:101FC0000B46FB7097F90330002B0EDAFB7803F019
:101FD000070213469B001344DB0010337A68134456
:101FE000FB60FB6801225A700EE0FB7803F00702E9
:101FF00013469B001344DB0003F5A8737A6813446F
:10200000FB60FB6800225A70FB7803F00703DAB22A
:10201000FB681A707B6893F89032012B01D1022380
:102020000EE07B68012283F890227B681B68F968C8
:10203000184604F079FC7B68002283F89022002384
:1020400018461037BD4680BD80B586B000AFF86039
:102050007A603B600B46FB72FB7A03F00702134683
:102060009B001344DB0003F5A873FA6813447B61FB
:102070007B697A685A617B693A689A617B69002258
:10208000DA617B6900225A70FB7A03F00703DAB247
:102090007B691A70FB681B687969184604F031FE89
:1020A000002318461837BD4680BD80B483B000AF0A
:1020B00078600B46FB70FB7803F0070279681346E3
:1020C0009B001344DB000B4403F5B6731B681846F2
:1020D0000C37BD465DF8047B704780B586B000AF15
:1020E000F8607A603B600B46FB72FB7A03F00702F4
:1020F00013469B001344DB001033FA6813447B61E2
:102100007B697A685A617B693A689A617B690122C6
:1021100083F824207B693A681A627B690022DA61BD
:102120007B6901225A70FB7A03F00703DAB27B69FC
:102130001A70FB681B687969184604F0E2FD0023F9
:1021400018461837BD4680BD80B584B000AF7860B2
:102150000B46FB70FB7803F007037A681279934211
:1021600001D901233EE097F90330002B0EDAFB780A
:1021700003F0070213469B001344DB0010337A6818
:102180001344FB60FB6801225A700CE0FA78134696
:102190009B001344DB0003F5A8737A681344FB60CB
:1021A000FB6800225A70FB6801229A70FB7803F0EA
:1021B0000703DAB2FB681A707B6893F89032012B40
:1021C00001D102230EE07B68012283F890227B6814
:1021D0001B68F968184605F043FB7B68002283F80A
:1021E0009022002318461037BD4680BD80B584B0CC
:1021F00000AF78600B46FB70FB7803F00F037A6842
:102200001279934201D9012340E097F90330002B62
:102210000EDAFB7803F0070213469B001344DB0041
:1022200010337A681344FB60FB6801225A700EE099
:10223000FB7803F0070213469B001344DB0003F511
:10224000A8737A681344FB60FB6800225A70FB682D
:1022500000229A70FB7803F00703DAB2FB681A7069
:102260007B6893F89032012B01D102230EE07B684A
:10227000012283F890227B681B68F968184605F0F4
:1022800040FB7B68002283F8902200231846103719
:10229000BD4680BD80B594B000AF78607AE37B68BE
:1022A0001B68B3F84430A7F84230B7F84230DBB2CD
:1022B00003F00F0387F8413097F84130072B01D91D
:1022C000012371E397F84130002B40F04381B7F8C8
:1022D000423003F01003002B4CD17B681B681B8835
:1022E0009BB223F4E14323F070037B817B681A687F
:1022F0007B896FEA43436FEA53439BB213807B6849
:102300001033BB647B681B68B3F850309BB21A462D
:10231000BB6C1B78DB0013447A681268134403F229
:1023200002431B88C3F30902BB6CDA61BB6C5A69B8
:10233000BB6CDB691A44BB6C5A610021786808F0F9
:1023400009FA7B681B7BDBB2002B00F02383BB6C9C
:102350009B69002B40F01E837B681B7BDBB263F024
:102360007F03DAB27B681B68A3F84C207B680022ED
:102370001A730FE37B6803F5A873BB647B681B6863
:102380001B88FB87FB8F03F40063002B7BD07B68EB
:102390001B68B3F850309BB21A46BB6C1B78DB004D
:1023A00013447A681268134403F206431B88C3F38C
:1023B0000902BB6CDA61BB6CDB69082B44D07B681B
:1023C0001B681B889BB223F4804323F070033B827D
:1023D0003B8A83F480533B827B681A683B8A43F0D4
:1023E0007F4343F47F0343F4004343F080039BB2F5
:1023F00013807B681B681B889BB223F4E04323F0A7
:102400004003FB81FB8983F01003FB817B681A6822
:10241000FB8943F07F4343F47F0343F4004343F0DD
:1024200080039BB213807B681B681B889AB240F6BE
:102430008F731340BB817B681B68BA8942F08002AE
:1024400092B21A800023AFE27B6818687B6803F5BC
:102450002671BB6CDA88BB6CDB699BB205F078FB3C
:102460007B681B681B889AB240F68F7313407B828F
:102470007B681B687A8A42F0800292B21A80786880
:1024800008F03BF986E2B7F93E30002B80F28282F9
:102490007B681B681B889AB240F68F731340FB82DF
:1024A0007B681B68FA8A42F0800292B21A807B68CD
:1024B0001B68B3F850309BB21A46BB6C1B78DB002C
:1024C00013447A681268134403F206431B88C3F36B
:1024D0000902BB6CDA61BB6CDB69002B1ED17B6827
:1024E0001B681B889BB223F4804323F07003BB82DC
:1024F000BB8A83F48053BB82BB8A83F40053BB82C4
:102500007B681A68BB8A43F07F4343F47F0343F43C
:10251000004343F080039BB213803BE2BB6C5B69DA
:10252000002B00F037827B681868BB6C5969BB6C64
:10253000DA88BB6CDB699BB205F00AFBBB6C5A699D
:10254000BB6CDB691A44BB6C5A610021786808F0E7
:10255000E6F81FE27B681B681A4697F841309B003B
:1025600013441B88FB87B7F93E30002B80F2F580BF
:102570007B681B681A4697F841309B0013441B8800
:102580009AB240F68F731340A7F846307B681B68F9
:102590001A4697F841309B001344B7F8462042F0A2
:1025A000800292B21A8097F8412013469B00134490
:1025B000DB0003F5A8737A681344BB64BB6C1B7B18
:1025C000002B23D17B681B68B3F850309BB21A46AE
:1025D000BB6C1B78DB0013447A681268134403F267
:1025E00006431B88C3F30903A7F84E30B7F84E30F3
:1025F000002B00F08D807B681868BB6C5969BB6C40
:10260000DA88B7F84E3005F0A3FA81E0BB6CDB78CE
:10261000022B09D1FB8F1A46B96C786800F0C8F913
:102620000346A7F84E3073E07B681B681A46BB6C04
:102630001B789B0013441B889BB223F4E04323F0D8
:102640007003A7F844307B681B681A46BB6C1B7884
:102650009B001A44B7F8443043F07F4343F47F03B0
:1026600043F4004343F0C0039BB213807B681B68B4
:102670001A46BB6C1B789B0013441B889BB203F467
:102680008043002B22D07B681B68B3F850309BB28C
:102690001A46BB6C1B78DB0013447A68126813443B
:1026A00003F202431B88C3F30903A7F84E30B7F8BF
:1026B0004E30002B2CD07B681868BB6C5969BB6C02
:1026C0001A89B7F84E3005F043FA21E07B681B68A1
:1026D000B3F850309BB21A46BB6C1B78DB00134436
:1026E0007A681268134403F206431B88C3F3090394
:1026F000A7F84E30B7F84E30002B09D07B68186829
:10270000BB6C5969BB6C5A89B7F84E3005F020FA9A
:10271000BB6CDA69B7F84E301A44BB6CDA61BB6C3B
:102720009B69002B05D0B7F84E20BB6C1B699A4201
:1027300006D2BB6C1B781946786807F0F0FF0CE0F6
:10274000BB6C5A69B7F84E301A44BB6C5A617B684F
:102750001B68B96C184604F0D4FAFB8F03F08003B1
:10276000002B00F0178197F8412013469B0013447B
:10277000DB0010337A681344BB647B681B681A461D
:1027800097F841309B0013441B889BB223F4E1432C
:1027900023F07003BB877B681B681A4697F84130AB
:1027A0009B001A44BB8F6FEA43436FEA53439BB2CB
:1027B0001380BB6CDB78012B40F0A180BB6C002246
:1027C0009A61BB6C1B7B002B00F09280FB8F03F0A7
:1027D0004003002B46D0BB6C5B78002B26D17B6876
:1027E0001B68FB617B681B68B3F850309BB21A46CC
:1027F000FB691344FB61BB6C1B78DA00FB69134473
:1028000003F20243BB61BB691B889BB2C3F309039C
:102810009AB2BB691A80BB691B889BB26FEA4343BB
:102820006FEA53439AB2BB691A8061E0BB6C5B7874
:10283000012B5DD17B681B687B627B681B68B3F8EA
:1028400050309BB21A467B6A13447B62BB6C1B7888
:10285000DA007B6A134403F202433B623B6A0022C4
:102860001A8045E07B681B687B63BB6C5B78002B40
:1028700026D17B681B68FB627B681B68B3F850300D
:102880009BB21A46FB6A1344FB62BB6C1B78DA00EE
:10289000FB6A134403F20643BB62BB6A1B889BB20C
:1028A000C3F309039AB2BB6A1A80BB6A1B889BB246
:1028B0006FEA43436FEA53439AB2BB6A1A8017E048
:1028C000BB6C5B78012B13D17B681B68B3F850306D
:1028D0009BB21A467B6B13447B63BB6C1B78DA009C
:1028E0007B6B134403F206433B633B6B00221A806D
:1028F000BB6C1B781946786807F02CFF4AE0FB8F09
:1029000003F48073002B3FD17B681B68B3F8503011
:102910009BB21A46BB6C1B78DB0013447A681268C2
:10292000134403F202431B88C3F309037B87BB6C88
:102930009A697B8F9A4206D9BB6C9A697B8FD21AAF
:10294000BB6C9A6102E0BB6C00229A61BB6C9B6914
:10295000002B06D1BB6C1B781946786807F0FAFE8D
:1029600018E0BB6C5A697B8F1A44BB6C5A61BB6C14
:10297000DA697B8F1A44BB6CDA617B681B68B96CBF
:10298000184604F0BEF905E0FB8F1A46B96C78686A
:1029900000F017F97B681B68B3F844309BB21BB298
:1029A000002BFFF67CAC002318465037BD4680BD97
:1029B00080B588B000AFF860B9601346FB80FB8833
:1029C00003F48043002B7CD0FB681B68B3F85030C5
:1029D0009BB21A46BB681B78DB001344FA68126886
:1029E000134403F202431B88C3F309037B83BB68D0
:1029F0009A697B8B9A4206D3BB689A697B8BD21A01
:102A0000BB689A6102E0BB6800229A61BB689B695F
:102A1000002B23D1FB681B681A46BB681B789B0000
:102A200013441B889BB223F4804323F070033B8341
:102A30003B8B83F400533B83FB681B681A46BB68DF
:102A40001B789B001A443B8B43F07F4343F47F0386
:102A500043F4004343F080039BB21380FB8803F0F0
:102A60004003002B1FD0FB681B681A46BB681B780D
:102A70009B0013441B889BB223F4E04323F07003B4
:102A8000FB82FB681B681A46BB681B789B001A44D4
:102A9000FB8A43F07F4343F47F0343F4004343F056
:102AA000C0039BB213807B8B002B00F08580FB68FA
:102AB0001868BB685969BB681A897B8B05F048F8B0
:102AC0007AE0FB681B68B3F850309BB21A46BB68CB
:102AD0001B78DB001344FA681268134403F20643C0
:102AE0001B88C3F309037B83BB689A697B8B9A427B
:102AF00006D3BB689A697B8BD21ABB689A6102E0E5
:102B0000BB6800229A61BB689B69002B23D1FB68DC
:102B10001B681A46BB681B789B0013441B889BB23A
:102B200023F4804323F07003FB83FB8B83F4005377
:102B3000FB83FB681B681A46BB681B789B001A4422
:102B4000FB8B43F07F4343F47F0343F4004343F0A4
:102B500080039BB21380FB8803F04003002B1FD13E
:102B6000FB681B681A46BB681B789B0013441B88D4
:102B70009BB223F4E04323F07003BB83FB681B6824
:102B80001A46BB681B789B001A44BB8B43F07F43FB
:102B900043F47F0343F4004343F0C0039BB213802C
:102BA0007B8B002B08D0FB681868BB685969BB6831
:102BB0005A897B8B04F0CCFF7B8B18462037BD46AF
:102BC00080BD80B5A6B000AFF860B9601346FB8049
:102BD000FB8803F04003002B00F0F781FB681B68C3
:102BE000B3F850309BB21A46BB681B78DB00134425
:102BF000FA681268134403F202431B88C3F3090303
:102C0000A7F89630BB689A69B7F896309A4207D908
:102C1000BB689A69B7F89630D21ABB689A6102E02D
:102C2000BB6800229A61BB689B69002B40F0E18081
:102C3000BB685B78002B26D1FB681B683B63FB6895
:102C40001B68B3F850309BB21A463B6B13443B638E
:102C5000BB681B78DA003B6B134403F20243FB6250
:102C6000FB6A1B889BB2C3F309039AB2FB6A1A8002
:102C7000FB6A1B889BB26FEA43436FEA53439AB2E5
:102C8000FB6A1A801AE0BB685B78012B16D1FB68DF
:102C90001B68BB63FB681B68B3F850309BB21A46D5
:102CA000BB6B1344BB63BB681B78DA00BB6B13447C
:102CB00003F202437B637B6B00221A80FB681B6874
:102CC000BB62BB685B78002B26D1FB681B683B624C
:102CD000FB681B68B3F850309BB21A463B6A13443A
:102CE0003B62BB681B78DA003B6A134403F206437D
:102CF000FB61FB691B889BB2C3F309039AB2FB69B2
:102D00001A80FB691B889BB26FEA43436FEA534307
:102D10009AB2FB691A8017E0BB685B78012B13D16C
:102D2000FB681B68B3F850309BB21A46BB6A134469
:102D3000BB62BB681B78DA00BB6A134403F206432C
:102D40007B627B6A00221A80BB68DB78022B23D16E
:102D5000FB681B681A46BB681B789B0013441B88E2
:102D60009BB223F4E04323F040037B837B8B83F00F
:102D700020037B83FB681B681A46BB681B789B009B
:102D80001A447B8B43F07F4343F47F0343F40043B7
:102D900043F080039BB21380BB681B781946F86828
:102DA00007F0D8FCFB8803F48043002B1FD0FB689E
:102DB0001B681A46BB681B789B0013441B889BB298
:102DC00023F4E04323F070033B83FB681B681A463F
:102DD000BB681B789B001A443B8B43F07F4343F452
:102DE0007F0343F4404343F080039BB213800023EE
:102DF0001FE3FB8803F48043002B21D0FB681B6892
:102E00001A46BB681B789B0013441B889BB223F4B3
:102E1000E04323F07003A7F84E30FB681B681A46A6
:102E2000BB681B789B001A44B7F84E3043F07F43D1
:102E300043F47F0343F4404343F080039BB2138089
:102E4000BB6893F82430012B40F0CA82BB685A69F2
:102E5000B7F896301A44BB685A61BB68DA69B7F8AC
:102E600096301A44BB68DA61BB681A6ABB681B6992
:102E70009A4209D3BB681B69BB65BB681A6ABB6D04
:102E8000D21ABB681A6215E0BB681B6A002B07D117
:102E9000B7F89630BB65BB68002283F8242009E0B0
:102EA000BB68002283F82420BB681B6ABB65BB6833
:102EB00000221A62BB685B78002B5FD1FB681B683D
:102EC0003B64FB681B68B3F850309BB21A463B6CFE
:102ED00013443B64BB681B78DA003B6C134403F279
:102EE0000243FB63FB6B1B889BB2C3F309039AB2DB
:102EF000FB6B1A80BB6D002B0AD1FB6B1B889BB24E
:102F00006FEA43436FEA53439AB2FB6B1A8051E076
:102F1000BB6D3E2B16D8BB6D5B083B65BB6D03F0EC
:102F20000103002B02D03B6D01333B65FB6B1B881B
:102F30009AB23B6D9BB29B029BB213439AB2FB6B5E
:102F40001A8037E0BB6D5B093B65BB6D03F01F0367
:102F5000002B02D13B6D013B3B65FB6B1B889AB29A
:102F60003B6D9BB29B029BB213439BB26FEA434300
:102F70006FEA53439AB2FB6B1A801BE0BB685B7825
:102F8000012B17D1FB681B68BB64FB681B68B3F897
:102F900050309BB21A46BB6C1344BB64BB681B78B1
:102FA000DA00BB6C134403F202437B64BB6D9AB23C
:102FB0007B6C1A80FB681868BB685969BB681A8902
:102FC000BB6D9BB204F081FD0AE2FB681B68B3F89D
:102FD00050309BB21A46BB681B78DB001344FA687A
:102FE0001268134403F206431B88C3F30903A7F8CE
:102FF0009630BB689A69B7F896309A4207D3BB6897
:103000009A69B7F89630D21ABB689A6102E0BB6839
:1030100000229A61BB689B69002B40F0F680BB6878
:103020005B78002B26D1FB681B687B67FB681B68FD
:10303000B3F850309BB21A467B6F13447B67BB6872
:103040001B78DA007B6F134403F202433B673B6F4C
:103050001B889BB2C3F309039AB23B6F1A803B6F84
:103060001B889BB26FEA43436FEA53439AB23B6FAC
:103070001A801AE0BB685B78012B16D1FB681B68CD
:10308000FB67FB681B68B3F850309BB21A46FB6FB6
:103090001344FB67BB681B78DA00FB6F134403F231
:1030A0000243BB67BB6F00221A80FB681B68C7F82E
:1030B0008430BB685B78002B2FD1FB681B68C7F896
:1030C0008C30FB681B68B3F850309BB21A46D7F8B7
:1030D0008C301344C7F88C30BB681B78DA00D7F803
:1030E0008C30134403F20643C7F88830D7F8883091
:1030F0001B889BB2C3F309039AB2D7F888301A80B1
:10310000D7F888301B889BB26FEA43436FEA53437A
:103110009AB2D7F888301A801CE0BB685B78012B24
:1031200018D1FB681B68B3F850309BB21A46D7F829
:1031300084301344C7F88430BB681B78DA00D7F8B2
:103140008430134403F20643C7F88030D7F8803048
:1031500000221A80BB68DB78022B27D1FB681B6832
:103160001A46BB681B789B0013441B889BB223F450
:10317000E04323F04003A7F89430B7F8943083F08D
:103180002003A7F89430FB681B681A46BB681B78BD
:103190009B001A44B7F8943043F07F4343F47F0315
:1031A00043F4004343F080039BB21380BB681B7859
:1031B0001946F86807F0CEFAFB8803F48043002B29
:1031C00021D1FB681B681A46BB681B789B0013441F
:1031D0001B889BB223F4E04323F07003A7F89230DE
:1031E000FB681B681A46BB681B789B001A44B7F83B
:1031F000923043F07F4343F47F0343F4404343F072
:1032000080039BB21380002313E1FB8803F4804307
:10321000002B21D1FB681B681A46BB681B789B00FA
:1032200013441B889BB223F4E04323F07003A7F8F8
:103230005630FB681B681A46BB681B789B001A4413
:10324000B7F8563043F07F4343F47F0343F44043E1
:1032500043F080039BB21380BB6893F82430012BAA
:1032600040F0BE80BB685A69B7F896301A44BB6814
:103270005A61BB68DA69B7F896301A44BB68DA61FC
:10328000BB681A6ABB681B699A4209D3BB681B6991
:10329000BB65BB681A6ABB6DD21ABB681A6215E0BF
:1032A000BB681B6A002B07D1B7F89630BB65BB68BB
:1032B000002283F8242009E0BB681B6ABB65BB6859
:1032C00000221A62BB68002283F82420FB681B6876
:1032D000FB65BB685B78002B5FD1FB681B68BB6636
:1032E000FB681B68B3F850309BB21A46BB6E1344A0
:1032F000BB66BB681B78DA00BB6E134403F206435F
:103300007B667B6E1B889BB2C3F309039AB27B6E0C
:103310001A80BB6D002B0AD17B6E1B889BB26FEAB3
:1033200043436FEA53439AB27B6E1A804EE0BB6D03
:103330003E2B16D8BB6D5B083B66BB6D03F00103EB
:10334000002B02D03B6E01333B667B6E1B889AB22A
:103350003B6E9BB29B029BB213439AB27B6E1A8068
:1033600034E0BB6D5B093B66BB6D03F01F03002BB4
:1033700002D13B6E013B3B667B6E1B889AB23B6E73
:103380009BB29B029BB213439BB26FEA43436FEA2B
:1033900053439AB27B6E1A8018E0BB685B78012BAE
:1033A00014D1FB681B68B3F850309BB21A46FB6D12
:1033B0001344FB65BB681B78DA00FB6D134403F212
:1033C0000643FB66BB6D9AB2FB6E1A80FB681868F9
:1033D000BB685969BB685A89BB6D9BB204F075FB29
:1033E000FB681B681A46BB681B789B0013441B884C
:1033F0009BB223F4E04323F04003FB82FB8A83F07B
:103400001003FB82FB8A83F02003FB82FB681B68AE
:103410001A46BB681B789B001A44FB8A43F07F4323
:1034200043F47F0343F4004343F080039BB21380D3
:10343000002318469837BD4680BD80B487B000AFE2
:10344000F8607B600B467B8113463B817B8903F0F0
:1034500080039BB2002B0BD07B8903F0070213463D
:103460009B001344DB001033FA6813447B6109E0CE
:103470007A8913469B001344DB0003F5A873FA68AE
:1034800013447B613B89002B07D17B6900221A73AF
:103490007B689AB27B69DA800BE07B6901221A7340
:1034A0007B689AB27B691A817B681B0C9AB27B6934
:1034B0005A81002318461C37BD465DF8047B7047CF
:1034C00080B485B000AF78607B681B68FB607B6868
:1034D0000122C3F8D0227B68002283F8C822FB684F
:1034E000B3F854309BB243F001039AB2FB68A3F8DF
:1034F0005420FB68B3F854309BB243F002039AB2F5
:10350000FB68A3F85420002318461437BD465DF825
:10351000047B704780B483B000AF78600B46FB70CB
:1035200000BF0C37BD465DF8047B704780B485B0A2
:1035300000AF78607B68002B41D14B4B1B6803F4D4
:10354000C063B3F5806F31D1474BD3F88030464A22
:1035500023F48073C2F88030434B1B6823F4C063AC
:10356000414A43F400731360404B1B68322202FB54
:1035700003F33F4AA2FB03239B0C0133FB6002E0F1
:10358000FB68013BFB60384B5B6903F48063B3F578
:10359000806F02D1FB68002BF2D1334B5B6903F4DF
:1035A0008063B3F5806F58D1032357E02E4BD3F8D7
:1035B00080302D4A23F48073C2F880304DE07B6860
:1035C000B3F5007F41D1284B1B6803F4C063B3F50A
:1035D000806F31D1244BD3F88030234A43F4807379
:1035E000C2F88030204B1B6823F4C0631E4A43F4AA
:1035F000007313601D4B1B68322202FB03F31C4A4D
:10360000A2FB03239B0C0133FB6002E0FB68013B40
:10361000FB60154B5B6903F48063B3F5806F02D1E7
:10362000FB68002BF2D1104B5B6903F48063B3F5A8
:10363000806F12D1032311E00B4BD3F880300A4A7C
:1036400043F48073C2F8803007E0074B1B6823F413
:10365000C063054A43F4806313600023184614379F
:10366000BD465DF8047B70470070004000000020FC
:1036700083DE1B4380B400AF054B9B68044A43F4D0
:103680008043936000BFBD465DF8047B704700BF78
:103690000070004080B588B000AF78607B68002B78
:1036A00001D10123FEE27B681B6803F00103002BBC
:1036B00075D0974B9B6803F00C03BB61944BDB68A0
:1036C00003F003037B61BB690C2B02D17B69032BE5
:1036D00002D0BB69082B0BD18D4B1B6803F4003360
:1036E000002B5BD07B685B68002B57D10123D9E2AC
:1036F0007B685B68B3F5803F06D1854B1B68844AC5
:1037000043F4803313601DE07B685B68B3F5A02F42
:103710000CD17F4B1B687E4A43F4802313607C4BA3
:103720001B687B4A43F4803313600BE0784B1B68C3
:10373000774A23F480331360754B1B68744A23F473
:10374000802313607B685B68002B13D0FDF780FB40
:10375000386108E0FDF77CFB02463B69D31A642B15
:1037600001D903239EE26A4B1B6803F40033002B4C
:10377000F0D014E0FDF76CFB386108E0FDF768FB62
:1037800002463B69D31A642B01D903238AE2604BBA
:103790001B6803F40033002BF0D100E000BF7B680E
:1037A0001B6803F00203002B75D0594B9B6803F094
:1037B0000C03BB61564BDB6803F003037B61BB6901
:1037C0000C2B02D17B69022B02D0BB69042B1FD1C9
:1037D0004F4B1B6803F48063002B05D07B68DB68CC
:1037E000002B01D101235DE2494B5B6823F0FE42CF
:1037F0007B681B691B06464913434B60454B1B689E
:103800001846FDF7D9FA0346002B43D0012349E2BD
:103810007B68DB68002B23D03D4B1B683C4A43F49C
:1038200080731360FDF714FB386108E0FDF710FBAF
:1038300002463B69D31A022B01D9032332E2344BEF
:103840001B6803F48063002BF0D0314B5B6823F0DE
:10385000FE427B681B691B062D4913434B601AE02F
:103860002B4B1B682A4A23F480731360FDF7F0FA90
:10387000386108E0FDF7ECFA02463B69D31A022BE7
:1038800001D903230EE2224B1B6803F48063002B53
:10389000F0D100E000BF7B681B6803F00803002B39
:1038A00041D07B685B69002B1CD0194BD3F8943056
:1038B000174A43F00103C2F89430FDF7C9FA3861A2
:1038C00008E0FDF7C5FA02463B69D31A022B01D97D
:1038D0000323E7E10E4BD3F8943003F00203002BEF
:1038E000EFD020E00A4BD3F89430094A23F00103CB
:1038F000C2F89430FDF7ACFA38610DE0FDF7A8FA94
:1039000002463B69D31A022B06D90323CAE100BF42
:1039100000100240040000208C4BD3F8943003F0D8
:103920000203002BEAD17B681B6803F00403002B21
:1039300000F0A6800023FB77844B9B6D03F080533F
:10394000002B01D1012300E00023002B0DD07F4B81
:103950009B6D7E4A43F0805393657C4B9B6D03F0D7
:103960008053FB60FB680123FB77794B1B6803F4F2
:103970008073002B18D1764B1B68754A43F4807313
:103980001360FDF765FA386108E0FDF761FA024659
:103990003B69D31A022B01D9032383E16C4B1B68CB
:1039A00003F48073002BF0D07B689B68012B08D157
:1039B000664BD3F89030654A43F00103C2F890306B
:1039C00024E07B689B68052B10D1604BD3F89030C6
:1039D0005E4A43F00403C2F890305C4BD3F8903059
:1039E0005A4A43F00103C2F890300FE0574BD3F826
:1039F0009030564A23F00103C2F89030534BD3F86D
:103A00009030524A23F00403C2F890307B689B68E0
:103A1000002B16D0FDF71CFA38610AE0FDF718FA02
:103A200002463B69D31A41F28832934201D90323FB
:103A300038E1464BD3F8903003F00203002BEDD071
:103A400015E0FDF705FA38610AE0FDF701FA0246D4
:103A50003B69D31A41F28832934201D9032321E111
:103A60003A4BD3F8903003F00203002BEDD1FB7FEB
:103A7000012B05D1354B9B6D344A23F08053936560
:103A80007B681B6803F02003002B3CD07B689B699C
:103A9000002B1CD02D4BD3F898302C4A43F0010357
:103AA000C2F89830FDF7D4F9386108E0FDF7D0F995
:103AB00002463B69D31A022B01D90323F2E0234BC0
:103AC000D3F8983003F00203002BEFD01BE01F4B1C
:103AD000D3F898301D4A23F00103C2F89830FDF75F
:103AE000B7F9386108E0FDF7B3F902463B69D31A2C
:103AF000022B01D90323D5E0144BD3F8983003F0FF
:103B00000203002BEFD17B68DB69002B00F0C9803A
:103B10000E4B9B6803F00C030C2B00F083807B683A
:103B2000DB69022B5ED1094B1B68084A23F08073C6
:103B30001360FDF78DF938610CE0FDF789F9024655
:103B40003B69D31A022B05D90323ABE000100240D6
:103B500000700040554B1B6803F00073002BECD144
:103B6000524BDA68524B13407A68116A7A68526A8B
:103B7000013A120111437A68926A120211437A687B
:103B8000126B5208013A520511437A68526B52087F
:103B9000013A520611437A68D26AD2060A4343496F
:103BA0001343CB60414B1B68404A43F08073136062
:103BB0003E4BDB683D4A43F08073D360FDF748F924
:103BC000386108E0FDF744F902463B69D31A022B3D
:103BD00001D9032366E0354B1B6803F00073002B0B
:103BE000F0D05EE0314B1B68304A23F080731360E5
:103BF000FDF72EF9386108E0FDF72AF902463B6926
:103C0000D31A022B01D903234CE0284B1B6803F085
:103C10000073002BF0D1254BDA682449254B134063
:103C2000CB603EE07B68DB69012B01D1012339E0E9
:103C30001E4BDB687B617B6903F003027B681B6AB8
:103C40009A422CD17B6903F0F0027B685B6A013BEE
:103C50001B019A4223D17B6903F4FE427B689B6A75
:103C60001B029A421BD17B6903F078427B68DB6AB6
:103C7000DB069A4213D17B6903F4C0027B681B6B9D
:103C80005B08013B5B059A4209D17B6903F0C06286
:103C90007B685B6B5B08013B5B069A4201D00123AA
:103CA00000E0002318462037BD4680BD00100240CA
:103CB0000C809F01FCFFEEFE80B586B000AF7860FF
:103CC000396000237B617B68002B01D101231EE159
:103CD000914B1B6803F00F033A689A4210D98E4B40
:103CE0001B6823F00F028C493B6813430B608A4B1F
:103CF0001B6803F00F033A689A4201D0012306E1E2
:103D00007B681B6803F00103002B73D07B685B6842
:103D1000032B29D1814B1B6803F00073002B01D1C9
:103D20000123F4E000F09EF938613B697C4A93423C
:103D30003FD97A4B9B6803F0F003002B09D07B68D6
:103D40001B6803F00203002B33D07B689B68002BB9
:103D50002FD1724B9B6823F0F003704A43F080032D
:103D6000936080237B6124E07B685B68022B07D132
:103D70006A4B1B6803F40033002B09D10123C6E012
:103D8000664B1B6803F48063002B01D10123BEE066
:103D900000F0CEF838613B69614A934209D95F4B24
:103DA0009B6823F0F0035D4A43F080039360802317
:103DB0007B615A4B9B6823F003027B685B68574921
:103DC00013438B60FDF744F8F8600AE0FDF740F814
:103DD0000246FB68D31A41F28832934201D9032389
:103DE00095E04E4B9B6803F00C027B685B689B0080
:103DF0009A42EBD17B681B6803F00203002B23D0AF
:103E00007B681B6803F00403002B05D0434B9B68C1
:103E1000424A43F4E06393607B681B6803F0080345
:103E2000002B07D03D4B9B6823F47C533B4A43F463
:103E3000E0639360394B9B6823F0F0027B689B68DA
:103E4000364913438B6008E07B69802B05D1334BE7
:103E50009B68324A23F0F00393602F4B1B6803F0FA
:103E60000F033A689A421DD22B4B1B6823F00F02B6
:103E700029493B6813430B60FCF7EAFFF8600AE04E
:103E8000FCF7E6FF0246FB68D31A41F28832934200
:103E900001D903233BE0204B1B6803F00F033A6872
:103EA0009A42EDD17B681B6803F00403002B08D015
:103EB0001A4B9B6823F4E0627B68DB681749134365
:103EC0008B607B681B6803F00803002B09D0134B41
:103ED0009B6823F460527B681B69DB000F49134326
:103EE0008B6000F025F802460C4B9B681B0903F021
:103EF0000F030C49CB5C03F01F0322FA03F30A4AB9
:103F000013600A4B1B681846FCF756FF0346184619
:103F10001837BD4680BD00BF00200240001002409F
:103F200000B4C404F0B50008000000200400002024
:103F300080B487B000AF2C4B9B6803F00C03042BBC
:103F400002D12A4B3B6147E0274B9B6803F00C03EF
:103F5000082B02D1264B3B613EE0234B9B6803F0CC
:103F60000C030C2B36D1204BDB6803F00303FB6002
:103F70001D4BDB681B0903F00F030133BB60FB68BB
:103F8000032B0CD11A4ABB68B2FBF3F3164AD26872
:103F9000120A02F07F0202FB03F37B610CE0134A7A
:103FA000BB68B2FBF3F3104AD268120A02F07F0238
:103FB00002FB03F37B6100BF0B4BDB685B0E03F07E
:103FC000030301335B007B607A697B68B2FBF3F328
:103FD0003B6101E000233B613B6918461C37BD464D
:103FE0005DF8047B704700BF001002400024F4001D
:103FF00000127A0080B400AF034B1B681846BD4620
:104000005DF8047B704700BF0000002080B500AF62
:10401000FFF7F0FF0246064B9B681B0A03F00703FD
:104020000449CB5C03F01F0322FA03F3184680BD5A
:104030000010024000B6000880B500AFFFF7DAFFBD
:104040000246064B9B68DB0A03F007030449CB5C7E
:1040500003F01F0322FA03F3184680BD001002404C
:1040600000B6000880B487B000AF1E4BDB6803F0D9
:1040700003033B611B4BDB681B0903F00F03013398
:10408000FB603B69032B0CD1174AFB68B2FBF3F3CF
:10409000144AD268120A02F07F0202FB03F37B612A
:1040A0000CE0124AFB68B2FBF3F30E4AD268120A24
:1040B00002F07F0202FB03F37B6100BF094BDB6868
:1040C0005B0E03F0030301335B00BB607A69BB68DE
:1040D000B2FBF3F37B607B6818461C37BD465DF886
:1040E000047B70470010024000127A000024F400A4
:1040F00080B586B000AF78600023FB740023BB74EA
:104100007B681B6803F40023002B00F098800023D9
:104110007B74434B9B6D03F08053002B0DD1404BC0
:104120009B6D3F4A43F0805393653D4B9B6D03F07D
:104130008053BB60BB6801237B743A4B1B68394AD0
:1041400043F480731360FCF783FEF86009E0FCF72A
:104150007FFE0246FB68D31A022B02D90323FB74AD
:1041600005E0304B1B6803F48073002BEFD0FB7C21
:10417000002B59D12A4BD3F8903003F440737B6164
:104180007B69002B1ED07B681B6C7A699A4219D020
:10419000234BD3F8903023F440737B61204BD3F84A
:1041A00090301F4A43F48033C2F890301C4BD3F850
:1041B00090301B4A23F48033C2F89030184A7B6950
:1041C000C2F890307B6903F00103002B16D0FCF796
:1041D0003FFEF8600BE0FCF73BFE0246FB68D31A9B
:1041E00041F28832934202D90323FB7406E00C4B60
:1041F000D3F8903003F00203002BECD0FB7C002BB3
:104200000BD1074BD3F8903023F440727B681B6CC2
:1042100003491343C1F8903008E0FB7CBB7405E010
:104220000010024000700040FB7CBB747B7C012BC3
:1042300005D1A64B9B6DA54A23F0805393657B68FF
:104240001B6803F00103002B0AD0A04BD3F8883081
:1042500023F003027B685B689C491343C1F88830F4
:104260007B681B6803F00203002B0AD0974BD3F83E
:10427000883023F00C027B689B6894491343C1F893
:1042800088307B681B6803F00403002B0AD08F4B37
:10429000D3F8883023F030027B68DB688B49134306
:1042A000C1F888307B681B6803F00803002B0AD034
:1042B000864BD3F8883023F0C0027B681B698349A2
:1042C0001343C1F888307B681B6803F02003002B80
:1042D0000AD07E4BD3F8883023F440627B685B6958
:1042E0007A491343C1F888307B681B6803F04003A8
:1042F000002B0AD0754BD3F8883023F440527B68EA
:104300009B6972491343C1F888307B681B6803F0CE
:104310008003002B0AD06D4BD3F8883023F4404241
:104320007B68DB6969491343C1F888307B681B6887
:1043300003F48073002B0AD0644BD3F8883023F445
:1043400040327B681B6A61491343C1F888307B683F
:104350001B6803F40073002B0AD05C4BD3F8883041
:1043600023F440227B685B6A58491343C1F88830C4
:104370007B681B6803F48063002B15D0534BD3F884
:10438000883023F440127B689B6A50491343C1F87C
:1043900088307B689B6AB3F5801F05D14B4BDB6887
:1043A0004A4A43F48013D3607B681B6803F40063BC
:1043B000002B15D0454BD3F8883023F440027B689E
:1043C000DB6A42491343C1F888307B68DB6AB3F586
:1043D000800F05D13D4BDB683C4A43F48013D3602A
:1043E0007B681B6803F48053002B15D0374BD3F840
:1043F000883023F040727B681B6B34491343C1F84B
:1044000088307B681B6BB3F1807F05D12F4BDB6855
:104410002E4A43F48013D3607B681B6803F4005377
:10442000002B15D0294BD3F8883023F040627B68ED
:104430005B6B26491343C1F888307B685B6BB3F133
:10444000006F05D1214BDB68204A43F48013D36011
:104450007B681B6803F48043002B15D01B4BD3F8FB
:10446000883023F040627B689B6B18491343C1F886
:1044700088307B689B6BB3F1006F05D1134BDB6811
:10448000124A43F48013D3607B681B6803F4004333
:10449000002B15D00D4BD3F8883023F040527B68A9
:1044A000DB6B0A491343C1F888307B68DB6BB3F1DF
:1044B000805F05D1054BDB68044A43F48033D36049
:1044C000BB7C18461837BD4680BD00BF00100240B7
:1044D00080B582B000AF78607B68002B01D10123EA
:1044E00042E07B68D3F88830002B06D17B6800223D
:1044F00083F884207868FCF729FB7B682422C3F8C2
:1045000088207B681B681A687B681B6822F00102A0
:104510001A607B689B6A002B02D0786800F0F4FE7A
:10452000786800F025FC0346012B01D101231BE034
:104530007B681B685A687B681B6822F490425A604B
:104540007B681B689A687B681B6822F02A029A6065
:104550007B681B681A687B681B6842F001021A605E
:10456000786800F073FF034618460837BD4680BDE3
:1045700080B590B000AF78607B68D3F88830FB637B
:104580007B68D3F88C30BB637B681B689B6803F047
:104590008003802B39D1FB6B212B36D17B681B68C4
:1045A00008333B623B6A53E8003FFB61FB6923F041
:1045B00080037B637B681B6808337A6BFA62BB629B
:1045C000B96AFA6A41E800237B627B6A002BE5D175
:1045D0007B68DB6F002B15D07B68DB6F1846FCF720
:1045E00098FE0346002B0DD07B68DB6F1846FDF765
:1045F00004F80346202B05D17B681022C3F89020D5
:10460000032347E0786801F0DFF87B681B689B684C
:1046100003F04003402B3CD1BB6B222B39D17B688C
:104620001B680833FB60FB6853E8003FBB60BB6856
:1046300023F040033B637B681B6808333A6BBA6125
:104640007B617969BA6941E800233B613B69002BD2
:10465000E5D17B68D3F88030002B17D07B68D3F886
:1046600080301846FCF755FE0346002B0ED07B68C1
:10467000D3F880301846FCF7C0FF0346202B05D145
:104680007B681022C3F89020032303E0786801F0D0
:10469000DCF8002318464037BD4680BD80B5BAB06F
:1046A00000AF78607B681B68DB69C7F8E4307B6823
:1046B0001B681B68C7F8E0307B681B689B68C7F8FD
:1046C000DC30D7F8E42040F60F031340C7F8D830A9
:1046D000D7F8D830002B1BD1D7F8E43003F02003F3
:1046E000002B15D0D7F8E03003F02003002B05D1C4
:1046F000D7F8DC3003F08053002B09D07B685B6F68
:10470000002B00F000837B685B6F78689847FAE2C3
:10471000D7F8D830002B00F02381D7F8DC208D4B60
:104720001340002B06D1D7F8E0208B4B1340002B11
:1047300000F01681D7F8E43003F00103002B11D00C
:10474000D7F8E03003F48073002B0BD07B681B6834
:1047500001221A627B68D3F8903043F001027B6833
:10476000C3F89020D7F8E43003F00203002B11D0F7
:10477000D7F8DC3003F00103002B0BD07B681B68FB
:1047800002221A627B68D3F8903043F004027B68FF
:10479000C3F89020D7F8E43003F00403002B11D0C5
:1047A000D7F8DC3003F00103002B0BD07B681B68CB
:1047B00004221A627B68D3F8903043F002027B68CF
:1047C000C3F89020D7F8E43003F00803002B17D08B
:1047D000D7F8E03003F02003002B05D1D7F8DC2018
:1047E0005C4B1340002B0BD07B681B6808221A62BD
:1047F0007B68D3F8903043F008027B68C3F89020C0
:10480000D7F8E43003F40063002B12D0D7F8E0307F
:1048100003F08063002B0CD07B681B684FF40062B0
:104820001A627B68D3F8903043F020027B68C3F8AB
:1048300090207B68D3F89030002B00F06682D7F888
:10484000E43003F02003002B13D0D7F8E03003F05E
:104850002003002B05D1D7F8DC3003F08053002B68
:1048600007D07B685B6F002B03D07B685B6F786839
:1048700098477B68D3F89030C7F8D4307B681B68C2
:104880009B6803F04003402B05D0D7F8D43003F0E9
:104890002803002B54D0786800F0D7FF7B681B6892
:1048A0009B6803F04003402B46D17B681B680833AC
:1048B000C7F89C30D7F89C3053E8003FC7F89830D1
:1048C000D7F8983023F04003C7F8D0307B681B68D6
:1048D0000833D7F8D020C7F8A820C7F8A430D7F8F5
:1048E000A410D7F8A82041E80023C7F8A030D7F8D3
:1048F000A030002BD9D17B68D3F88030002B17D0A3
:104900007B68D3F88030154A9A637B68D3F880308F
:104910001846FCF75CFD0346002B19D07B68D3F8E2
:1049200080309B6B7A68D2F88020104698470FE061
:10493000786800F013FA0BE0786800F00FFA07E0EF
:10494000786800F00BFA7B680022C3F89020DCE165
:1049500000BFDAE101000010200100045B5B0008E9
:104960007B68DB6E012B40F07081D7F8E43003F0F8
:104970001003002B00F06981D7F8E03003F010033A
:10498000002B00F062817B681B6810221A627B6832
:104990001B689B6803F04003402B40F0D8807B6885
:1049A000D3F880301B685B68A7F8BE30B7F8BE301C
:1049B000002B00F0AF807B68B3F85C30B7F8BE2006
:1049C0009A4280F0A7807B68B7F8BE20A3F85E20EB
:1049D0007B68D3F880301B681B6803F02003002B32
:1049E00040F087807B681B68C7F88830D7F888302C
:1049F00053E8003FC7F88430D7F8843023F480733D
:104A0000C7F8B8307B681B681A46D7F8B830C7F8C3
:104A10009430C7F89020D7F89010D7F8942041E848
:104A20000023C7F88C30D7F88C30002BDAD17B68A4
:104A30001B6808337B677B6F53E8003F3B673B6F26
:104A400023F00103C7F8B4307B681B680833D7F83C
:104A5000B420C7F88020FB67F96FD7F8802041E8C1
:104A60000023BB67BB6F002BE1D17B681B68083359
:104A70003B663B6E53E8003FFB65FB6D23F0400354
:104A8000C7F8B0307B681B680833D7F8B020FA66E7
:104A9000BB66B96EFA6E41E800237B667B6E002B25
:104AA000E3D17B682022C3F88C207B680022DA6681
:104AB0007B681B68FB64FB6C53E8003FBB64BB6C0A
:104AC00023F01003C7F8AC307B681B681A46D7F890
:104AD000AC30BB657A65796DBA6D41E800233B6502
:104AE0003B6D002BE4D17B68D3F880301846FCF78F
:104AF00010FC7B6802221A677B68B3F85C207B6835
:104B0000B3F85E309BB2D31A9BB219467868FBF7B4
:104B1000DDFEFCE07B68B3F85C30B7F8BE209A425B
:104B200040F0F5807B68D3F880301B681B6803F089
:104B30002003202B40F0EB807B6802221A677B6801
:104B4000B3F85C3019467868FBF7C0FEDFE07B689D
:104B5000B3F85C207B68B3F85E309BB2D31AA7F839
:104B6000CE307B68B3F85E309BB2002B00F0D18072
:104B7000B7F8CE30002B00F0CC807B681B68BB639D
:104B8000BB6B53E8003F7B637B6B23F49073C7F8E8
:104B9000C8307B681B681A46D7F8C8307B643A6413
:104BA000396C7A6C41E80023FB63FB6B002BE4D18A
:104BB0007B681B6808337B627B6A53E8003F3B627B
:104BC0003B6A23F0805323F00103C7F8C4307B68AD
:104BD0001B680833D7F8C4203A63FB62F96A3A6B62
:104BE00041E80023BB62BB6A002BE1D17B68202235
:104BF000C3F88C207B680022DA667B6800225A6743
:104C00007B681B683B613B6953E8003FFB60FB68C6
:104C100023F01003C7F8C0307B681B681A46D7F82A
:104C2000C030FB61BA61B969FA6941E800237B6170
:104C30007B69002BE4D17B6802221A67B7F8CE307B
:104C400019467868FBF742FE63E0D7F8E43003F4D6
:104C50008013002B0ED0D7F8DC3003F48003002B38
:104C600008D07B681B684FF480121A62786800F0E5
:104C7000ADFF51E0D7F8E43003F08003002B14D0EF
:104C8000D7F8E03003F08003002B05D1D7F8DC30F3
:104C900003F40003002B08D07B689B6F002B3AD0F5
:104CA0007B689B6F7868984735E0D7F8E43003F06D
:104CB0004003002B09D0D7F8E03003F04003002B6D
:104CC00003D0786800F057FF26E0D7F8E43003F40B
:104CD0000003002B09D0D7F8E03003F08043002B0D
:104CE00003D0786800F086FF16E0D7F8E43003F0D0
:104CF0008073002B10D0D7F8E030002B0CDA7868E6
:104D000000F06EFF08E000BF06E000BF04E000BF57
:104D100002E000BF00E000BFE837BD4680BD00BF35
:104D200080B483B000AF786000BF0C37BD465DF83B
:104D3000047B704780B483B000AF786000BF0C374D
:104D4000BD465DF8047B704780B483B000AF7860E7
:104D500000BF0C37BD465DF8047B704780B483B05C
:104D600000AF786000BF0C37BD465DF8047B70472C
:104D70002DE9B04F8CB000AF7861002387F82A305E
:104D80007B699A687B691B691A437B695B691A4373
:104D90007B69DB691343FB627B691B681A68AB4B59
:104DA00013407A691268F96A0B4313607B691B68C8
:104DB0005B6823F440517B69DA687B691B680A43AE
:104DC0005A607B699B69FB627B691B68A04A9342BE
:104DD00004D07B691B6AFA6A1343FB627B691B6818
:104DE0009B6823F06E4323F430637A691268F96A92
:104DF0000B4393607B691B68DB6A23F00F017B69BF
:104E00005A6A7B691B680A43DA627B691B68914AAC
:104E1000934225D1904BD3F8883003F00303032B42
:104E20001AD801A252F823F0394E0008494E000862
:104E3000414E0008514E0008012387F82B30D6E080
:104E4000022387F82B30D2E0042387F82B30CEE002
:104E5000082387F82B30CAE0102387F82B30C6E0F0
:104E60007B691B687D4A934238D17B4BD3F88830ED
:104E700003F00C030C2B2DD801A252F823F000BF35
:104E8000B54E0008D54E0008D54E0008D54E000896
:104E9000C54E0008D54E0008D54E0008D54E000876
:104EA000BD4E0008D54E0008D54E0008D54E00086E
:104EB000CD4E0008002387F82B3098E0022387F8B6
:104EC0002B3094E0042387F82B3090E0082387F8F8
:104ED0002B308CE0102387F82B3088E07B691B682F
:104EE0005F4A934225D15C4BD3F8883003F03003FE
:104EF000302B16D0302B18D8202B0AD0202B14D8CA
:104F0000002B02D0102B08D00FE0002387F82B30A5
:104F10006DE0022387F82B3069E0042387F82B30FB
:104F200065E0082387F82B3061E0102387F82B30E9
:104F30005DE07B691B684B4A934225D1464BD3F811
:104F4000883003F0C003C02B16D0C02B18D8802B9C
:104F50000AD0802B14D8002B02D0402B08D00FE0B1
:104F6000002387F82B3042E0022387F82B303EE005
:104F7000042387F82B303AE0082387F82B3036E0FB
:104F8000102387F82B3032E07B691B68304A93424C
:104F90002AD1314BD3F8883003F44063B3F5406F26
:104FA0001AD0B3F5406F1BD8B3F5006F0CD0B3F532
:104FB000006F15D8002B03D0B3F5806F08D00FE039
:104FC000002387F82B3012E0022387F82B300EE005
:104FD000042387F82B300AE0082387F82B3006E0FB
:104FE000102387F82B3002E0102387F82B307B69E1
:104FF0001B68174A934240F0A88097F82B30082B83
:1050000034D801A252F823F02D5000086D5000084A
:10501000355000086D5000083B5000086D500008E6
:105020006D5000086D50000843500008FEF7EEFF79
:10503000786221E00C4B7B621EE0FEF779FF78621C
:105040001AE04FF400437B6216E000BFF369FFCF24
:105050000080004000380140001002400044004041
:1050600000480040004C00400024F40000237B6214
:10507000012387F82A3000BF7B6A002B00F02A81C9
:105080007B695B6A9E4A32F813301A467B6AB3FB2F
:10509000F2F3BB617B695A6813465B001344BA693B
:1050A0009A4205D37B695B681B03BA699A4203D9AC
:1050B000012387F82A300DE17B6A0022BB60FA6089
:1050C0007B695B6A8E4A32F813309BB200223B60E8
:1050D0007A60D7E90023D7E90201FBF7F1F802462D
:1050E0000B46104619464FF000024FF000030B022A
:1050F00043EA1063020279694968490800200C46B6
:10510000054612EB040843EB05097B695B68002246
:105110009A46934652465B4640464946FBF7D0F8CE
:1051200002460B4613463B623B6AB3F5407F08D309
:105130003B6AB3F5801F04D27B691B683A6ADA6068
:10514000C8E0012387F82A30C4E07B69DB69B3F546
:10515000004F67D197F82B30082B28D801A252F8BE
:1051600023F000BF895100089151000899510008AF
:10517000AF5100089F510008AF510008AF5100081F
:10518000AF510008A7510008FEF740FF786214E015
:10519000FEF752FF786210E05A4B7B620DE0FEF79B
:1051A000C7FE786209E04FF400437B6205E000230C
:1051B0007B62012387F82A3000BF7B6A002B00F056
:1051C00089807B695B6A4E4A32F813301A467B6AE3
:1051D000B3FBF2F35A007B695B685B081A447B6996
:1051E0005B68B2FBF3F33B623B6A0F2B16D93B6A59
:1051F000B3F5803F12D23B6A9BB223F00F03FB83CF
:105200003B6A5B089BB203F007039AB2FB8B134324
:10521000FB837B691B68FA8BDA605BE0012387F80C
:105220002A3057E097F82B30082B28D801A252F8E3
:1052300023F000BF5952000861520008695200086B
:105240007F5200086F5200087F5200087F5200080A
:105250007F52000877520008FEF7D8FE786214E00B
:10526000FEF7EAFE786210E0264B7B620DE0FEF767
:105270005FFE786209E04FF400437B6205E00023A3
:105280007B62012387F82A3000BF7B6A002B21D084
:105290007B695B6A1A4A32F813301A467B6AB3FBA1
:1052A000F2F27B695B685B081A447B695B68B2FB5E
:1052B000F3F33B623B6A0F2B09D93B6AB3F5803F9E
:1052C00005D23B6A9AB27B691B68DA6002E001236F
:1052D00087F82A307B690122A3F86A207B690122C2
:1052E000A3F868207B6900225A677B6900229A67CD
:1052F00097F82A3018463037BD46BDE8B08F00BF5A
:1053000008B600080024F40080B483B000AF7860D1
:105310007B689B6A03F00803002B0AD07B681B683C
:105320005B6823F400417B689A6B7B681B680A43C7
:105330005A607B689B6A03F00103002B0AD07B68EC
:105340001B685B6823F400317B68DA6A7B681B6842
:105350000A435A607B689B6A03F00203002B0AD061
:105360007B681B685B6823F480317B681A6B7B6801
:105370001B680A435A607B689B6A03F00403002B96
:105380000AD07B681B685B6823F480217B685A6BBA
:105390007B681B680A435A607B689B6A03F01003B2
:1053A000002B0AD07B681B689B6823F480517B68C4
:1053B000DA6B7B681B680A439A607B689B6A03F020
:1053C0002003002B0AD07B681B689B6823F40051E4
:1053D0007B681A6C7B681B680A439A607B689B6ACF
:1053E00003F04003002B1AD07B681B685B6823F432
:1053F00080117B685A6C7B681B680A435A607B6823
:105400005B6CB3F5801F0AD17B681B685B6823F473
:10541000C0017B689A6C7B681B680A435A607B6892
:105420009B6A03F08003002B0AD07B681B685B68D3
:1054300023F400217B68DA6C7B681B680A435A609E
:1054400000BF0C37BD465DF8047B704780B598B04F
:1054500002AF78607B680022C3F89020FBF7F8FC6D
:1054600078657B681B681B6803F00803082B2FD145
:105470006FF07E4300937B6D00224FF4001178683B
:1054800000F08EF80346002B22D07B681B68BB63BC
:10549000BB6B53E8003F7B637B6B23F080033B6572
:1054A0007B681B681A463B6D7B643A64396C7A6C86
:1054B00041E80023FB63FB6B002BE6D17B682022D5
:1054C000C3F888207B68002283F88420032363E0EC
:1054D0007B681B681B6803F00403042B49D16FF041
:1054E0007E4300937B6D00224FF48001786800F0CA
:1054F00057F80346002B3CD07B681B687B627B6AB5
:1055000053E8003F3B623B6A23F49073FB647B6883
:105510001B681A46FB6C3B63FA62F96A3A6B41E816
:105520000023BB62BB6A002BE6D17B681B68083393
:105530003B613B6953E8003FFB60FB6823F00103DC
:10554000BB647B681B680833BA6CFA61BB61B969DC
:10555000FA6941E800237B617B69002BE5D17B6818
:105560002022C3F88C207B68002283F88420032348
:1055700012E07B682022C3F888207B682022C3F8D1
:105580008C207B680022DA667B6800221A677B68C1
:10559000002283F88420002318465837BD4680BD7A
:1055A00080B584B000AFF860B9603B601346FB7112
:1055B0004FE0BB69B3F1FF3F4BD0FBF749FC02461C
:1055C0003B68D31ABA699A4202D3BB69002B01D156
:1055D00003234EE0FB681B681B6803F00403002BE9
:1055E00037D0BB68802B34D0BB68402B31D0FB68F0
:1055F0001B68DB6903F00803082B10D1FB681B68EC
:1056000008221A62F86800F020F9FB680822C3F843
:105610009020FB68002283F88420012329E0FB68A6
:105620001B68DB6903F40063B3F5006F11D1FB68FD
:105630001B684FF400621A62F86800F006F9FB6814
:105640002022C3F89020FB68002283F884200323E3
:105650000FE0FB681B68DA69BB681340BA689A42BE
:105660000CBF01230023DBB21A46FB799A42A0D07B
:10567000002318461037BD4680BD000080B596B0A7
:1056800000AFF860B9601346FB80FB68BA689A65A2
:10569000FB68FA88A3F85C20FB680022C3F890201E
:1056A000FB682222C3F88C20FB68D3F88030002BE3
:1056B0002DD0FB68D3F88030404ADA62FB68D3F81B
:1056C00080303F4A1A63FB68D3F880303D4A5A6302
:1056D000FB68D3F8803000229A63FB68D3F880001F
:1056E000FB681B6824331946FB689B6D1A46FB88D0
:1056F000FBF794FD0346002B09D0FB681022C3F88A
:105700009020FB682022C3F88C20012351E0FB6825
:105710001B69002B18D0FB681B68FB63FB6B53E80D
:10572000003FBB63BB6B43F480737B65FB681B6806
:105730001A467B6DBB647A64796CBA6C41E80023CD
:105740003B643B6C002BE6D1FB681B680833BB62F3
:10575000BB6A53E8003F7B627B6A43F001033B6511
:10576000FB681B6808333A6D7A633B63396B7A6B6D
:1057700041E80023FB62FB6A002BE5D1FB681B6854
:1057800008337B617B6953E8003F3B613B6943F031
:105790004003FB64FB681B680833FA6C3A62FB61E8
:1057A000F9693A6A41E80023BB61BB69002BE5D186
:1057B000002318465837BD4680BD00BF1759000862
:1057C000795A0008EB5A000880B48FB000AF7860B7
:1057D0007B681B683B623B6A53E8003FFB61FB69E7
:1057E00023F0C0037B637B681B681A467B6BFB62FC
:1057F000BA62B96AFA6A41E800237B627B6A002BCD
:10580000E6D17B681B680833FB60FB6853E8003F08
:10581000BB60BB6823F400033B637B681B680833F1
:105820003A6BBA617B617969BA6941E800233B61EF
:105830003B69002BE5D17B682022C3F8882000BF9C
:105840003C37BD465DF8047B704780B495B000AF2F
:1058500078607B681B687B637B6B53E8003F3B632E
:105860003B6B23F49073FB647B681B681A46FB6CEC
:105870003B64FA63F96B3A6C41E80023BB63BB6B92
:10588000002BE6D17B681B6808333B623B6A53E818
:10589000003FFB61FB6923F0805323F00103BB64ED
:1058A0007B681B680833BA6CFA62BB62B96AFA6A31
:1058B00041E800237B627B6A002BE3D17B68DB6ECF
:1058C000012B18D17B681B68FB60FB6853E8003F25
:1058D000BB60BB6823F010037B647B681B681A46BF
:1058E0007B6CBB617A617969BA6941E800233B61ED
:1058F0003B69002BE6D17B682022C3F88C207B68B3
:105900000022DA667B6800225A6700BF5437BD4622
:105910005DF8047B704780B59CB000AF78607B6811
:105920009B6AFB667B681B681B6803F02003002BE7
:1059300071D1FB6E0022A3F85E20FB6E1B68BB6476
:10594000BB6C53E8003F7B647B6C23F48073BB66C5
:10595000FB6E1B681A46BB6E7B653A65396D7A6DC6
:1059600041E80023FB64FB6C002BE6D1FB6E1B6857
:1059700008337B637B6B53E8003F3B633B6B23F057
:1059800001037B66FB6E1B6808337A6E3A64FB6327
:10599000F96B3A6C41E80023BB63BB6B002BE5D18C
:1059A000FB6E1B6808333B623B6A53E8003FFB61B8
:1059B000FB6923F040033B66FB6E1B6808333A6EBD
:1059C000FA62BB62B96AFA6A41E800237B627B6AC9
:1059D000002BE5D1FB6E2022C3F88C20FB6EDB6E22
:1059E000012B18D1FB6E1B68FB60FB6853E8003F7E
:1059F000BB60BB6823F01003FB65FB6E1B681A4697
:105A0000FB6DBB617A617969BA6941E800233B614A
:105A10003B69002BE6D1FB6E00221A67FB6EDB6E42
:105A2000012B22D1FB6E0022A3F85E207B681B684D
:105A30005B68A7F85A30FB6EB3F85C30B7F85A20B1
:105A40009A4204D2FB6EB7F85A20A3F85E20FB6E90
:105A5000B3F85C20FB6EB3F85E309BB2D31A9BB2F6
:105A60001946F86EFAF732FF02E0F86EFFF762F9B6
:105A700000BF7037BD4680BD80B584B000AF786090
:105A80007B689B6AFB60FB6801221A67FB68DB6E20
:105A9000012B23D1FB68B3F85C305B089AB2FB683A
:105AA000A3F85E207B681B685B687B81FB68B3F8AA
:105AB0005C307A899A4203D8FB687A89A3F85E2021
:105AC000FB68B3F85C20FB68B3F85E309BB2D31A76
:105AD0009BB21946F868FAF7F9FE02E0F868FFF79A
