:020000040800F2
:1000000000800020390600086D040008750400080F
:100010007D040008850400088D040008000000002D
:10002000000000000000000000000000950400082F
:10003000A304000800000000B1040008BF04000889
:100040008906000889060008890600088906000854
:100050008906000889060008890600088906000844
:100060008906000889060008890600088906000834
:100070008906000889060008890600088906000824
:1000800089060008000000008906000889060008AB
:10009000CD040008890600088906000889060008C2
:1000A00089060008890600088906000889060008F4
:1000B00089060008890600088906000889060008E4
:1000C00089060008890600088906000889060008D4
:1000D00089060008890600088906000889060008C4
:1000E00089060008890600088906000889060008B4
:1000F000890600088906000889060008000000003B
:1001000000000000890600080000000089060008C1
:10011000890600080000000089060008890600081A
:100120008906000889060008890600088906000873
:100130008906000800000000000000008906000891
:100140008906000889060008000000000000000081
:10015000000000000000000000000000000000009F
:1001600000000000000000000000000089060008F8
:1001700089060008000000000000000000000000E8
:1001800000000000890600080000000000000000D8
:10019000000000000000000000000000000000005F
:1001A0000000000000000000890600088906000821
:1001B000890600088906000889060008000000007A
:1001C0000000000089060008000000000000000098
:0801D0008906000889060008F9
:1001E00010B5054C237833B9044B13B10448AFF371
:1001F00000800123237010BD440300200000000094
:100200004C8A000808B5034B1BB103490348AFF300
:10021000008008BD00000000480300204C8A000850
:1002200001F0FF01102A2BDB10F0070F08D010F8A7
:10023000013B013A8B422DD010F0070F42B3F6D1AB
:10024000F0B441EA012141EA014122F007047FF0C4
:1002500000070023F0E80256083C85EA010586EA1B
:10026000010685FA47F5A3FA87F586FA47F6A5FA57
:1002700087F68EB9EED1F0BC01F0FF0102F0070263
:1002800032B110F8013B013A83EA010313B1F8D10E
:100290000020704701387047002D06BF35460338EF
:1002A000073815F0010F07D1013015F4807F02BF28
:1002B000013015F4C03F0130F0BC0138704700BF79
:1002C00080B483B000AF0F4BDB6C0E4A43F02003C9
:1002D000D3640C4BDB6C03F020037B607B68094B21
:1002E000DB6C084A43F00103D364064BDB6C03F07C
:1002F00001033B603B6800BF0C37BD465DF8047BE3
:10030000704700BF0010024080B584B000AF00F01D
:10031000BCF900F033F8FFF7D3FF00F029F904F03F
:10032000DDFE00F017FA0246124B1B68D31A41F2A9
:1003300088329342F5D900F00DFA03460D4A136056
:100340004FF48023BB600023FB6007F10803082201
:100350001946094806F0DAFA142000F007FA3B467D
:1003600000221A605A603B4608221946024806F0ED
:10037000CDFAD6E7600300204806002080B594B08F
:1003800000AF07F1180338220021184607F0E0FEFD
:100390003B1D00221A605A609A60DA601A610020E0
:1003A00002F06AF82223BB614FF480737B62402322
:1003B000BB6201233B6302237B630223BB630423F1
:1003C000FB6355233B6402237B640223BB6402234B
:1003D000FB6407F11803184602F002F90346002BEC
:1003E00001D000F018F80F237B600323BB600023CB
:1003F000FB6000233B6100237B613B1D0421184609
:1004000002F000FC0346002B01D000F004F800BF0E
:100410005037BD4680BD80B400AF72B600BF00BF8C
:10042000FDE7000080B582B000AF0F4B1B6E0E4A97
:1004300043F0010313660C4B1B6E03F001037B605A
:100440007B68094B9B6D084A43F080539365064BCC
:100450009B6D03F080533B603B6802F0B1F800BF36
:100460000837BD4680BD00BF0010024080B400AF19
:1004700000BFFDE780B400AF00BFFDE780B400AF70
:1004800000BFFDE780B400AF00BFFDE780B400AF60
:1004900000BFFDE780B400AF00BFBD465DF8047B40
:1004A000704780B400AF00BFBD465DF8047B704765
:1004B00080B400AF00BFBD465DF8047B704780B5D7
:1004C00000AF00F035F900BF80BD000080B500AF7F
:1004D000024800F06CFB00BF80BD00BF6803002035
:1004E00080B586B000AF7860144A154BD31A7B6193
:1004F0007B693B61134B1B68002B02D1114B124AE5
:100500001A60104B1A687B6813443A699A4207D202
:1005100007F026FE03460C221A604FF0FF3309E075
:10052000084B1B68FB60074B1A687B681344054A3D
:100530001360FB6818461837BD4680BD0080002058
:1005400000100000640300209010002080B400AF71
:10055000064BD3F88830054A43F47003C2F888305C
:1005600000BFBD465DF8047B704700BF00ED00E0B2
:1005700080B500AF104B114A1A600F4B08221A7158
:100580000D4B02225A710C4B0222DA710A4B0022E7
:100590001A72094B00225A72074B00229A72064BBC
:1005A0000022DA72044800F012FA0346002B01D050
:1005B000FFF731FF00BF80BD68030020005C0040F2
:1005C00080B594B000AF786007F10C03442200219D
:1005D000184607F0BDFD7B681B68154A934222D17F
:1005E0004FF40053FB6000233B6407F10C031846F3
:1005F00002F0ECFC0346002B01D0FFF70CFF0D4B83
:100600009B6D0C4A43F4000393650A4B9B6D03F406
:100610000003BB60BB6800220021142000F0A3F996
:10062000142000F0BAF900BF5037BD4680BD00BFAE
:10063000005C0040001002400D488546FFF786FF31
:100640000C480D490D4A002302E0D458C45004332D
:10065000C4188C42F9D30A4A0A4C002301E0136003
:100660000432A242FBD307F081FDFFF74DFEFEE707
:100670000080002000000020440300202C8B000894
:10068000440300208C100020FEE780B582B000AF4C
:100690000023FB71032000F05BF90F2000F00EF83F
:1006A0000346002B02D00123FB7101E0FFF7BAFEE5
:1006B000FB7918460837BD4680BD000080B584B080
:1006C00000AF78600023FB73164B1B68002B22D011
:1006D000154B1A68134B1B684FF47A71B1FBF3F397
:1006E000B2FBF3F3184600F066F90346002B0FD176
:1006F0007B680F2B09D8002279684FF0FF3000F09B
:1007000032F90A4A7B68136007E00123FB7304E0B7
:100710000123FB7301E00123FB73FB7B18461037B9
:10072000BD4680BD0800002000000020040000201D
:1007300080B400AF054B1A68054B1B681344034A8D
:10074000136000BFBD465DF8047B7047440600207F
:100750000800002080B400AF034B1B681846BD465C
:100760005DF8047B704700BF4406002080B584B06C
:1007700000AF7860FFF7EEFFB8607B68FB60FB6856
:10078000B3F1FF3F04D0094B1B68FA681344FB60C8
:1007900000BFFFF7DFFF0246BB68D31AFA689A4230
:1007A000F7D800BF00BF1037BD4680BD080000204D
:1007B00080B485B000AF78607B6803F00703FB600E
:1007C0000C4BDB68BB60BA684FF6FF031340BB609D
:1007D000FB681A02BB68134343F0BF6343F4003362
:1007E000BB60044ABB68D36000BF1437BD465DF8E8
:1007F000047B704700ED00E080B400AF044BDB6881
:100800001B0A03F007031846BD465DF8047B7047DA
:1008100000ED00E080B483B000AF0346FB7197F9B0
:100820000730002B0BDBFB7903F01F02074997F918
:1008300007305B09012000FA02F241F8232000BFD3
:100840000C37BD465DF8047B704700BF00E100E057
:1008500080B483B000AF03463960FB7197F907306D
:10086000002B0ADB3B68DAB20C4997F9073012011A
:10087000D2B20B4483F800230AE03B68DAB208499D
:10088000FB7903F00F03043B1201D2B20B441A763A
:1008900000BF0C37BD465DF8047B704700E100E007
:1008A00000ED00E080B489B000AFF860B9607A6014
:1008B000FB6803F00703FB61FB69C3F10703042B2B
:1008C00028BF0423BB61FB690433062B02D9FB69F3
:1008D000033B00E000237B614FF0FF32BB6902FA6B
:1008E00003F3DA43BB681A407B699A404FF0FF314B
:1008F0007B6901FA03F3D9437B680B401343184625
:100900002437BD465DF8047B7047000080B582B097
:1009100000AF78607B68013BB3F1807F01D3012396
:100920000FE00A4A7B68013B53600F214FF0FF3014
:10093000FFF78EFF054B00229A60044B07221A60D6
:10094000002318460837BD4680BD00BF10E000E018
:1009500080B582B000AF78607868FFF729FF00BFEC
:100960000837BD4680BD80B586B000AF0346B9608C
:100970007A60FB73FFF740FF78617A68B96878693D
:10098000FFF790FF024697F90F3011461846FFF720
:100990005FFF00BF1837BD4680BD80B582B000AF95
:1009A0000346FB7197F907301846FFF733FF00BF86
:1009B0000837BD4680BD80B582B000AF78607868EA
:1009C000FFF7A4FF034618460837BD4680BD80B533
:1009D00084B000AF78607B68002B01D10123C0E0B8
:1009E0007B6893F89132DBB2002B06D17B68002242
:1009F00083F890227868FFF7E3FD7B68032283F891
:100A000091227B681B68184602F0E7FC0023FB7309
:100A10003EE0FA7B796813469B001344DB000B44ED
:100A2000113301221A70FA7B796813469B00134434
:100A3000DB000B441033FA7B1A70FA7B796813469B
:100A40009B001344DB000B44133300221A70FA7B23
:100A5000796813469B001344DB000B4420330022CB
:100A60001A60FA7B796813469B001344DB000B4441
:100A7000243300221A60FB7B79685A1C13469B00C2
:100A80001344DB000B4400221A60FB7B0133FB7331
:100A90007B681B79FA7B9A42BBD30023FB7344E04B
:100AA000FA7B796813469B001344DB000B4403F286
:100AB000511300221A70FA7B796813469B00134485
:100AC000DB000B4403F5A873FA7B1A70FA7B796894
:100AD00013469B001344DB000B4403F25313002224
:100AE0001A70FA7B796813469B001344DB000B44B1
:100AF00003F5B07300221A60FA7B796813469B00F5
:100B00001344DB000B4403F5B27300221A60FA7B36
:100B1000796813469B001344DB000B4403F5B47360
:100B200000221A60FB7B0133FB737B681B79FA7B25
:100B30009A42B5D37B6818687B68043393E8060053
:100B400002F066FC7B6800221A737B68012283F83E
:100B500091227B689B7A012B02D1786801F055FCC9
:100B6000002318461037BD4680BD80B582B000AF67
:100B700078607B6893F89032012B01D1022312E058
:100B80007B68012283F890227B681B68184602F07C
:100B90000DFC7B681B68184604F0EAF97B680022AC
:100BA00083F89022002318460837BD4680BD80B5E3
:100BB00084B000AF78607B681B68184604F0EFF9DA
:100BC000F860FB6803F40043002B03D0786800F062
:100BD00006FB10E1FB6803F48063002B13D07B68F5
:100BE0001B68B3F844309AB27B681B6822F48062B9
:100BF00092B2A3F84420786807F04EF80021786894
:100C000000F0FCF8F7E0FB6803F48043002B0CD005
:100C10007B681B68B3F844309AB27B681B6822F487
:100C2000804292B2A3F84420E5E0FB6803F400534D
:100C3000002B0CD07B681B68B3F844309AB27B68F9
:100C40001B6822F4005292B2A3F84420D3E0FB6860
:100C500003F48053002B34D07B681B68B3F840301A
:100C60009AB27B681B6822F0040292B2A3F840207B
:100C70007B681B68B3F840309AB27B681B6822F02F
:100C8000080292B2A3F840207B6893F8C832012B87
:100C900007D17B68002283F8C8220021786801F020
:100CA000DEFB786807F027F87B681B68B3F84430F0
:100CB0009AB27B681B6822F4805292B2A3F8442057
:100CC00099E0FB6803F40063002B27D07B681B6866
:100CD000B3F840309AB27B681B6842F0080292B2C7
:100CE000A3F840207B681B68B3F844309AB27B6855
:100CF0001B6822F4006292B2A3F844207B681B6850
:100D0000B3F840309AB27B681B6842F0040292B29A
:100D1000A3F84020786806F0E0FF6CE0FB6803F081
:100D20008003002B40D07B681B68B3F844309AB234
:100D30007B681B6822F0800292B2A3F844207B6893
:100D400093F8C832002B2BD17B681B68B3F8403076
:100D50009AB27B681B6842F0040292B2A3F840206A
:100D60007B681B68B3F840309AB27B681B6842F01E
:100D7000080292B2A3F840207B68012283F8C822BF
:100D80007B681B68B3F854309BB29B0803F03C02AD
:100D90007B68C3F8CC220121786801F060FB2AE06F
:100DA000786806F09AFF26E0FB6803F40073002BD6
:100DB0000FD07B681B68B3F844309AB27B681B681D
:100DC00022F4007292B2A3F84420786806F056FF2D
:100DD00011E0FB6803F48073002B0CD07B681B6868
:100DE000B3F844309AB27B681B6822F4807292B2E6
:100DF000A3F8442000BF1037BD4680BD80B582B047
:100E000000AF78600B46FB707B6893F89032012B43
:100E100001D1022312E07B68012283F890227B68D3
:100E2000FA781A737B681B68FA781146184604F042
:100E30008BF87B68002283F890220023184608373D
:100E4000BD4680BD80B584B000AF786008461146CD
:100E50001A460346FB700B463B801346BB700023CB
:100E6000FB7297F90330002B0EDAFB7803F00702D0
:100E700013469B001344DB0010337A681344FB6075
:100E8000FB6801225A700EE0FB7803F0070213465C
:100E90009B001344DB0003F5A8737A681344FB60DE
:100EA000FB6800225A70FB7803F00703DAB2FB6894
:100EB0001A703B88C3F30A02FB681A61FB68BA78B0
:100EC000DA70BB78022B02D1FB6800221A717B68B2
:100ED00093F89032012B01D102230EE07B680122AE
:100EE00083F890227B681B68F968184602F0AEFA16
:100EF0007B68002283F89022FB7A18461037BD46A3
:100F000080BD80B584B000AF78600B46FB7097F968
:100F10000330002B0EDAFB7803F0070213469B0028
:100F20001344DB0010337A681344FB60FB68012232
:100F30005A700EE0FB7803F0070213469B0013443F
:100F4000DB0003F5A8737A681344FB60FB6800229A
:100F50005A70FB7803F00703DAB2FB681A707B68FB
:100F600093F89032012B01D102230EE07B6801221D
:100F700083F890227B681B68F968184602F04EFFE0
:100F80007B68002283F89022002318461037BD4664
:100F900080BD80B586B000AFF8607A603B600B46DC
:100FA000FB72FB7A03F0070213469B001344DB003D
:100FB00003F5A873FA6813447B617B697A685A6108
:100FC0007B693A689A617B690022DA617B69002259
:100FD0005A70FB7A03F00703DAB27B691A70FB6878
:100FE0001B687969184603F006F90023184618377C
:100FF000BD4680BD80B483B000AF78600B46FB7007
:10100000FB7803F00702796813469B001344DB006A
:101010000B4403F5B6731B6818460C37BD465DF8E4
:10102000047B704780B586B000AFF8607A603B60A3
:101030000B46FB72FB7A03F0070213469B00134436
:10104000DB001033FA6813447B617B697A685A616C
:101050007B693A689A617B69012283F824207B6965
:101060003A681A627B690022DA617B6901225A7050
:10107000FB7A03F00703DAB27B691A70FB681B681E
:101080007969184603F0B7F8002318461837BD46AB
:1010900080BD80B584B000AF78600B46FB70FB78F4
:1010A00003F007037A681279934201D901233EE0E5
:1010B00097F90330002B0EDAFB7803F00702134692
:1010C0009B001344DB0010337A681344FB60FB6819
:1010D00001225A700CE0FA7813469B001344DB009F
:1010E00003F5A8737A681344FB60FB6800225A700A
:1010F000FB6801229A70FB7803F00703DAB2FB6801
:101100001A707B6893F89032012B01D102230EE014
:101110007B68012283F890227B681B68F968184677
:1011200003F018FE7B68002283F890220023184603
:101130001037BD4680BD80B584B000AF78600B46E7
:10114000FB70FB7803F00F037A681279934201D9A0
:10115000012340E097F90330002B0EDAFB7803F00F
:10116000070213469B001344DB0010337A681344D4
:10117000FB60FB6801225A700EE0FB7803F0070267
:1011800013469B001344DB0003F5A8737A681344ED
:10119000FB60FB6800225A70FB6800229A70FB78A3
:1011A00003F00703DAB2FB681A707B6893F8903299
:1011B000012B01D102230EE07B68012283F89022EB
:1011C0007B681B68F968184603F015FE7B680022EF
:1011D00083F89022002318461037BD4680BD80B5A5
:1011E00094B000AF78607AE37B681B68B3F8443052
:1011F000A7F84230B7F84230DBB203F00F0387F8AC
:10120000413097F84130072B01D9012371E397F85A
:101210004130002B40F04381B7F8423003F0100317
:10122000002B4CD17B681B681B889BB223F4E143E5
:1012300023F070037B817B681A687B896FEA4343E4
:101240006FEA53439BB213807B681033BB647B68A7
:101250001B68B3F850309BB21A46BB6C1B78DB009E
:1012600013447A681268134403F202431B88C3F3E1
:101270000902BB6CDA61BB6C5A69BB6CDB691A444E
:10128000BB6C5A610021786806F0DEFC7B681B7B32
:10129000DBB2002B00F02383BB6C9B69002B40F07A
:1012A0001E837B681B7BDBB263F07F03DAB27B6853
:1012B0001B68A3F84C207B6800221A730FE37B683D
:1012C00003F5A873BB647B681B681B88FB87FB8FD7
:1012D00003F40063002B7BD07B681B68B3F85030AD
:1012E0009BB21A46BB6C1B78DB0013447A68126809
:1012F000134403F206431B88C3F30902BB6CDA6193
:10130000BB6CDB69082B44D07B681B681B889BB2D5
:1013100023F4804323F070033B823B8A83F48053A1
:101320003B827B681A683B8A43F07F4343F47F0328
:1013300043F4004343F080039BB213807B681B6837
:101340001B889BB223F4E04323F04003FB81FB891D
:1013500083F01003FB817B681A68FB8943F07F43AD
:1013600043F47F0343F4004343F080039BB21380B4
:101370007B681B681B889AB240F68F731340BB8151
:101380007B681B68BA8942F0800292B21A800023FF
:10139000AFE27B6818687B6803F52671BB6CDA885E
:1013A000BB6CDB699BB203F04DFE7B681B681B883E
:1013B0009AB240F68F7313407B827B681B687A8AEF
:1013C00042F0800292B21A80786806F010FC86E241
:1013D000B7F93E30002B80F282827B681B681B8845
:1013E0009AB240F68F731340FB827B681B68FA8ABF
:1013F00042F0800292B21A807B681B68B3F85030CA
:101400009BB21A46BB6C1B78DB0013447A681268E7
:10141000134403F206431B88C3F30902BB6CDA6171
:10142000BB6CDB69002B1ED17B681B681B889BB2E1
:1014300023F4804323F07003BB82BB8A83F4805380
:10144000BB82BB8A83F40053BB827B681A68BB8A69
:1014500043F07F4343F47F0343F4004343F08003AE
:101460009BB213803BE2BB6C5B69002B00F03782C0
:101470007B681868BB6C5969BB6CDA88BB6CDB692C
:101480009BB203F0DFFDBB6C5A69BB6CDB691A448D
:10149000BB6C5A610021786806F0BBFB1FE27B68D9
:1014A0001B681A4697F841309B0013441B88FB8742
:1014B000B7F93E30002B80F2F5807B681B681A4636
:1014C00097F841309B0013441B889AB240F68F7303
:1014D0001340A7F846307B681B681A4697F84130DE
:1014E0009B001344B7F8462042F0800292B21A8063
:1014F00097F8412013469B001344DB0003F5A873C3
:101500007A681344BB64BB6C1B7B002B23D17B68C4
:101510001B68B3F850309BB21A46BB6C1B78DB00DB
:1015200013447A681268134403F206431B88C3F31A
:101530000903A7F84E30B7F84E30002B00F08D802D
:101540007B681868BB6C5969BB6CDA88B7F84E3099
:1015500003F078FD81E0BB6CDB78022B09D1FB8FB7
:101560001A46B96C786800F0C8F90346A7F84E30FF
:1015700073E07B681B681A46BB6C1B789B001344A6
:101580001B889BB223F4E04323F07003A7F8443098
:101590007B681B681A46BB6C1B789B001A44B7F823
:1015A000443043F07F4343F47F0343F4004343F06C
:1015B000C0039BB213807B681B681A46BB6C1B7808
:1015C0009B0013441B889BB203F48043002B22D062
:1015D0007B681B68B3F850309BB21A46BB6C1B7813
:1015E000DB0013447A681268134403F202431B8839
:1015F000C3F30903A7F84E30B7F84E30002B2CD0B8
:101600007B681868BB6C5969BB6C1A89B7F84E3097
:1016100003F018FD21E07B681B68B3F850309BB2E3
:101620001A46BB6C1B78DB0013447A6812681344BB
:1016300003F206431B88C3F30903A7F84E30B7F83B
:101640004E30002B09D07B681868BB6C5969BB6CA5
:101650005A89B7F84E3003F0F5FCBB6CDA69B7F87D
:101660004E301A44BB6CDA61BB6C9B69002B05D011
:10167000B7F84E20BB6C1B699A4206D2BB6C1B7834
:101680001946786806F0C5FA0CE0BB6C5A69B7F8E1
:101690004E301A44BB6C5A617B681B68B96C1846A3
:1016A00002F0A9FDFB8F03F08003002B00F01781EF
:1016B00097F8412013469B001344DB0010337A68EF
:1016C0001344BB647B681B681A4697F841309B0043
:1016D00013441B889BB223F4E14323F07003BB87C0
:1016E0007B681B681A4697F841309B001A44BB8FF1
:1016F0006FEA43436FEA53439BB21380BB6CDB78C2
:10170000012B40F0A180BB6C00229A61BB6C1B7B5B
:10171000002B00F09280FB8F03F04003002B46D09B
:10172000BB6C5B78002B26D17B681B68FB617B68F8
:101730001B68B3F850309BB21A46FB691344FB6137
:10174000BB6C1B78DA00FB69134403F20243BB61F4
:10175000BB691B889BB2C3F309039AB2BB691A80A9
:10176000BB691B889BB26FEA43436FEA53439AB24B
:10177000BB691A8061E0BB6C5B78012B5DD17B6833
:101780001B687B627B681B68B3F850309BB21A46BB
:101790007B6A13447B62BB6C1B78DA007B6A134460
:1017A00003F202433B623B6A00221A8045E07B68F9
:1017B0001B687B63BB6C5B78002B26D17B681B6846
:1017C000FB627B681B68B3F850309BB21A46FB6A19
:1017D0001344FB62BB6C1B78DA00FB6A134403F210
:1017E0000643BB62BB6A1B889BB2C3F309039AB270
:1017F000BB6A1A80BB6A1B889BB26FEA43436FEADD
:1018000053439AB2BB6A1A8017E0BB6C5B78012B1A
:1018100013D17B681B68B3F850309BB21A467B6BC0
:1018200013447B63BB6C1B78DA007B6B134403F2BD
:1018300006433B633B6B00221A80BB6C1B78194646
:10184000786806F001FA4AE0FB8F03F48073002BFE
:101850003FD17B681B68B3F850309BB21A46BB6C13
:101860001B78DB0013447A681268134403F20243C6
:101870001B88C3F309037B87BB6C9A697B8F9A42F1
:1018800006D9BB6C9A697B8FD21ABB6C9A6102E055
:10189000BB6C00229A61BB6C9B69002B06D1BB6CB0
:1018A0001B781946786806F0CFF918E0BB6C5A69C6
:1018B0007B8F1A44BB6C5A61BB6CDA697B8F1A440C
:1018C000BB6CDA617B681B68B96C184602F093FC4C
:1018D00005E0FB8F1A46B96C786800F017F97B6851
:1018E0001B68B3F844309BB21BB2002BFFF67CACF4
:1018F000002318465037BD4680BD80B588B000AF84
:10190000F860B9601346FB80FB8803F48043002B2A
:101910007CD0FB681B68B3F850309BB21A46BB689A
:101920001B78DB001344FA681268134403F2024385
:101930001B88C3F309037B83BB689A697B8B9A423C
:1019400006D3BB689A697B8BD21ABB689A6102E0A6
:10195000BB6800229A61BB689B69002B23D1FB689E
:101960001B681A46BB681B789B0013441B889BB2FC
:1019700023F4804323F070033B833B8B83F40053B9
:101980003B83FB681B681A46BB681B789B001A44A4
:101990003B8B43F07F4343F47F0343F4004343F026
:1019A00080039BB21380FB8803F04003002B1FD001
:1019B000FB681B681A46BB681B789B0013441B8896
:1019C0009BB223F4E04323F07003FB82FB681B68A7
:1019D0001A46BB681B789B001A44FB8A43F07F437E
:1019E00043F47F0343F4004343F0C0039BB21380EE
:1019F0007B8B002B00F08580FB681868BB685969F9
:101A0000BB681A897B8B03F01DFB7AE0FB681B68BF
:101A1000B3F850309BB21A46BB681B78DB00134406
:101A2000FA681268134403F206431B88C3F30903E0
:101A30007B83BB689A697B8B9A4206D3BB689A69A1
:101A40007B8BD21ABB689A6102E0BB6800229A6164
:101A5000BB689B69002B23D1FB681B681A46BB68D7
:101A60001B789B0013441B889BB223F4804323F014
:101A70007003FB83FB8B83F40053FB83FB681B68C1
:101A80001A46BB681B789B001A44FB8B43F07F43CC
:101A900043F47F0343F4004343F080039BB213807D
:101AA000FB8803F04003002B1FD1FB681B681A461C
:101AB000BB681B789B0013441B889BB223F4E04354
:101AC00023F07003BB83FB681B681A46BB681B7856
:101AD0009B001A44BB8B43F07F4343F47F0343F4E2
:101AE000004343F0C0039BB213807B8B002B08D0D4
:101AF000FB681868BB685969BB685A897B8B03F01F
:101B0000A1FA7B8B18462037BD4680BD80B5A6B0B4
:101B100000AFF860B9601346FB80FB8803F0400318
:101B2000002B00F0F781FB681B68B3F850309BB2C4
:101B30001A46BB681B78DB001344FA68126813442A
:101B400003F202431B88C3F30903A7F89630BB686E
:101B50009A69B7F896309A4207D9BB689A69B7F87C
:101B60009630D21ABB689A6102E0BB6800229A6183
:101B7000BB689B69002B40F0E180BB685B78002B61
:101B800026D1FB681B683B63FB681B68B3F85030C9
:101B90009BB21A463B6B13443B63BB681B78DA006D
:101BA0003B6B134403F20243FB62FB6A1B889BB24C
:101BB000C3F309039AB2FB6A1A80FB6A1B889BB2C3
:101BC0006FEA43436FEA53439AB2FB6A1A801AE002
:101BD000BB685B78012B16D1FB681B68BB63FB6895
:101BE0001B68B3F850309BB21A46BB6B1344BB63FF
:101BF000BB681B78DA00BB6B134403F202437B63C0
:101C00007B6B00221A80FB681B68BB62BB685B7839
:101C1000002B26D1FB681B683B62FB681B68B3F88E
:101C200050309BB21A463B6A13443B62BB681B7838
:101C3000DA003B6A134403F20643FB61FB691B882D
:101C40009BB2C3F309039AB2FB691A80FB691B8834
:101C50009BB26FEA43436FEA53439AB2FB691A801F
:101C600017E0BB685B78012B13D1FB681B68B3F8E6
:101C700050309BB21A46BB6A1344BB62BB681B78E8
:101C8000DA00BB6A134403F206437B627B6A0022DC
:101C90001A80BB68DB78022B23D1FB681B681A46CD
:101CA000BB681B789B0013441B889BB223F4E04362
:101CB00023F040037B837B8B83F020037B83FB68D3
:101CC0001B681A46BB681B789B001A447B8B43F049
:101CD0007F4343F47F0343F4004343F080039BB20C
:101CE0001380BB681B781946F86805F0ADFFFB88C8
:101CF00003F48043002B1FD0FB681B681A46BB68A7
:101D00001B789B0013441B889BB223F4E04323F011
:101D100070033B83FB681B681A46BB681B789B00FB
:101D20001A443B8B43F07F4343F47F0343F4404327
:101D300043F080039BB2138000231FE3FB8803F46E
:101D40008043002B21D0FB681B681A46BB681B78B8
:101D50009B0013441B889BB223F4E04323F07003E1
:101D6000A7F84E30FB681B681A46BB681B789B00BF
:101D70001A44B7F84E3043F07F4343F47F0343F4F3
:101D8000404343F080039BB21380BB6893F8243038
:101D9000012B40F0CA82BB685A69B7F896301A44E2
:101DA000BB685A61BB68DA69B7F896301A44BB68F9
:101DB000DA61BB681A6ABB681B699A4209D3BB68BF
:101DC0001B69BB65BB681A6ABB6DD21ABB681A6215
:101DD00015E0BB681B6A002B07D1B7F89630BB65CE
:101DE000BB68002283F8242009E0BB68002283F846
:101DF0002420BB681B6ABB65BB6800221A62BB68F3
:101E00005B78002B5FD1FB681B683B64FB681B6839
:101E1000B3F850309BB21A463B6C13443B64BB682A
:101E20001B78DA003B6C134403F20243FB63FB6B49
:101E30001B889BB2C3F309039AB2FB6B1A80BB6D7C
:101E4000002B0AD1FB6B1B889BB26FEA43436FEAFE
:101E500053439AB2FB6B1A8051E0BB6D3E2B16D8F0
:101E6000BB6D5B083B65BB6D03F00103002B02D02B
:101E70003B6D01333B65FB6B1B889AB23B6D9BB29C
:101E80009B029BB213439AB2FB6B1A8037E0BB6D87
:101E90005B093B65BB6D03F01F03002B02D13B6D5B
:101EA000013B3B65FB6B1B889AB23B6D9BB29B026F
:101EB0009BB213439BB26FEA43436FEA53439AB218
:101EC000FB6B1A801BE0BB685B78012B17D1FB68AA
:101ED0001B68BB64FB681B68B3F850309BB21A46A2
:101EE000BB6C1344BB64BB681B78DA00BB6C134447
:101EF00003F202437B64BB6D9AB27B6C1A80FB6871
:101F00001868BB685969BB681A89BB6D9BB203F03E
:101F100056F80AE2FB681B68B3F850309BB21A46C9
:101F2000BB681B78DB001344FA681268134403F2A1
:101F300006431B88C3F30903A7F89630BB689A6968
:101F4000B7F896309A4207D3BB689A69B7F89630CB
:101F5000D21ABB689A6102E0BB6800229A61BB6832
:101F60009B69002B40F0F680BB685B78002B26D184
:101F7000FB681B687B67FB681B68B3F850309BB23B
:101F80001A467B6F13447B67BB681B78DA007B6F54
:101F9000134403F202433B673B6F1B889BB2C3F3BE
:101FA00009039AB23B6F1A803B6F1B889BB26FEAA2
:101FB00043436FEA53439AB23B6F1A801AE0BB68FF
:101FC0005B78012B16D1FB681B68FB67FB681B68FD
:101FD000B3F850309BB21A46FB6F1344FB67BB68E3
:101FE0001B78DA00FB6F134403F20243BB67BB6F3D
:101FF00000221A80FB681B68C7F88430BB685B78D6
:10200000002B2FD1FB681B68C7F88C30FB681B685E
:10201000B3F850309BB21A46D7F88C301344C7F847
:102020008C30BB681B78DA00D7F88C30134403F28D
:102030000643C7F88830D7F888301B889BB2C3F3B3
:1020400009039AB2D7F888301A80D7F888301B88ED
:102050009BB26FEA43436FEA53439AB2D7F8883092
:102060001A801CE0BB685B78012B18D1FB681B68E9
:10207000B3F850309BB21A46D7F884301344C7F8EF
:102080008430BB681B78DA00D7F88430134403F23D
:102090000643C7F88030D7F8803000221A80BB682A
:1020A000DB78022B27D1FB681B681A46BB681B78BC
:1020B0009B0013441B889BB223F4E04323F04003AE
:1020C000A7F89430B7F8943083F02003A7F8943041
:1020D000FB681B681A46BB681B789B001A44B7F85C
:1020E000943043F07F4343F47F0343F4004343F0D1
:1020F00080039BB21380BB681B781946F86805F013
:10210000A3FDFB8803F48043002B21D1FB681B68EF
:102110001A46BB681B789B0013441B889BB223F4B0
:10212000E04323F07003A7F89230FB681B681A465F
:10213000BB681B789B001A44B7F8923043F07F438A
:1021400043F47F0343F4404343F080039BB2138086
:10215000002313E1FB8803F48043002B21D1FB68AB
:102160001B681A46BB681B789B0013441B889BB2F4
:1021700023F4E04323F07003A7F85630FB681B6894
:102180001A46BB681B789B001A44B7F8563043F0D8
:102190007F4343F47F0343F4404343F080039BB207
:1021A0001380BB6893F82430012B40F0BE80BB68DD
:1021B0005A69B7F896301A44BB685A61BB68DA6945
:1021C000B7F896301A44BB68DA61BB681A6ABB6814
:1021D0001B699A4209D3BB681B69BB65BB681A6A55
:1021E000BB6DD21ABB681A6215E0BB681B6A002B74
:1021F00007D1B7F89630BB65BB68002283F824206E
:1022000009E0BB681B6ABB65BB6800221A62BB6839
:10221000002283F82420FB681B68FB65BB685B78A1
:10222000002B5FD1FB681B68BB66FB681B68B3F8BB
:1022300050309BB21A46BB6E1344BB66BB681B781A
:10224000DA00BB6E134403F206437B667B6E1B8889
:102250009BB2C3F309039AB27B6E1A80BB6D002B4D
:102260000AD17B6E1B889BB26FEA43436FEA5343EC
:102270009AB27B6E1A804EE0BB6D3E2B16D8BB6DBA
:102280005B083B66BB6D03F00103002B02D03B6E85
:1022900001333B667B6E1B889AB23B6E9BB29B02FE
:1022A0009BB213439AB27B6E1A8034E0BB6D5B091C
:1022B0003B66BB6D03F01F03002B02D13B6E013B5D
:1022C0003B667B6E1B889AB23B6E9BB29B029BB2B5
:1022D00013439BB26FEA43436FEA53439AB27B6E58
:1022E0001A8018E0BB685B78012B14D1FB681B686F
:1022F000B3F850309BB21A46FB6D1344FB65BB68C4
:102300001B78DA00FB6D134403F20643FB66BB6DDA
:102310009AB2FB6E1A80FB681868BB685969BB6883
:102320005A89BB6D9BB202F04AFEFB681B681A46D5
:10233000BB681B789B0013441B889BB223F4E043CB
:1023400023F04003FB82FB8A83F01003FB82FB8AAD
:1023500083F02003FB82FB681B681A46BB681B786E
:102360009B001A44FB8A43F07F4343F47F0343F40A
:10237000004343F080039BB2138000231846983734
:10238000BD4680BD80B487B000AFF8607B600B466F
:102390007B8113463B817B8903F080039BB2002B3A
:1023A0000BD07B8903F0070213469B001344DB002C
:1023B0001033FA6813447B6109E07A8913469B0065
:1023C0001344DB0003F5A873FA6813447B613B896F
:1023D000002B07D17B6900221A737B689AB27B6954
:1023E000DA800BE07B6901221A737B689AB27B6901
:1023F0001A817B681B0C9AB27B695A8100231846AC
:102400001C37BD465DF8047B704780B485B000AFD3
:1024100078607B681B68FB607B680122C3F8D02270
:102420007B68002283F8C822FB68B3F854309BB263
:1024300043F001039AB2FB68A3F85420FB68B3F899
:1024400054309BB243F002039AB2FB68A3F85420C5
:10245000002318461437BD465DF8047B704780B4EE
:1024600083B000AF78600B46FB7000BF0C37BD46F1
:102470005DF8047B7047000080B485B000AF7860E1
:102480007B68002B41D14B4B1B6803F4C063B3F551
:10249000806F31D1474BD3F88030464A23F48073A4
:1024A000C2F88030434B1B6823F4C063414A43F4B5
:1024B00000731360404B1B68322202FB03F33F4A58
:1024C000A2FB03239B0C0133FB6002E0FB68013B92
:1024D000FB60384B5B6903F48063B3F5806F02D116
:1024E000FB68002BF2D1334B5B6903F48063B3F5D7
:1024F000806F58D1032357E02E4BD3F880302D4AFC
:1025000023F48073C2F880304DE07B68B3F5007F20
:1025100041D1284B1B6803F4C063B3F5806F31D100
:10252000244BD3F88030234A43F48073C2F88030C0
:10253000204B1B6823F4C0631E4A43F400731360EE
:102540001D4B1B68322202FB03F31C4AA2FB032330
:102550009B0C0133FB6002E0FB68013BFB60154B09
:102560005B6903F48063B3F5806F02D1FB68002BD5
:10257000F2D1104B5B6903F48063B3F5806F12D125
:10258000032311E00B4BD3F880300A4A43F48073E5
:10259000C2F8803007E0074B1B6823F4C063054A8C
:1025A00043F480631360002318461437BD465DF87A
:1025B000047B7047007000400000002083DE1B4356
:1025C00080B400AF054B9B68044A43F4804393609A
:1025D00000BFBD465DF8047B704700BF007000403F
:1025E00080B588B000AF78607B68002B01D10123F3
:1025F000FEE27B681B6803F00103002B75D0974B4C
:102600009B6803F00C03BB61944BDB6803F003038E
:102610007B61BB690C2B02D17B69032B02D0BB69A8
:10262000082B0BD18D4B1B6803F40033002B5BD0C0
:102630007B685B68002B57D10123D9E27B685B681C
:10264000B3F5803F06D1854B1B68844A43F4803341
:1026500013601DE07B685B68B3F5A02F0CD17F4B46
:102660001B687E4A43F4802313607C4B1B687B4AC3
:1026700043F4803313600BE0784B1B68774A23F4F4
:1026800080331360754B1B68744A23F480231360F6
:102690007B685B68002B13D0FEF75CF8386108E0BC
:1026A000FEF758F802463B69D31A642B01D903237D
:1026B0009EE26A4B1B6803F40033002BF0D014E059
:1026C000FEF748F8386108E0FEF744F802463B6937
:1026D000D31A642B01D903238AE2604B1B6803F4ED
:1026E0000033002BF0D100E000BF7B681B6803F0D3
:1026F0000203002B75D0594B9B6803F00C03BB61A0
:10270000564BDB6803F003037B61BB690C2B02D1E2
:102710007B69022B02D0BB69042B1FD14F4B1B6876
:1027200003F48063002B05D07B68DB68002B01D1AC
:1027300001235DE2494B5B6823F0FE427B681B6925
:102740001B06464913434B60454B1B681846FDF773
:10275000B5FF0346002B43D0012349E27B68DB68C9
:10276000002B23D03D4B1B683C4A43F4807313601D
:10277000FDF7F0FF386108E0FDF7ECFF02463B692A
:10278000D31A022B01D9032332E2344B1B6803F422
:102790008063002BF0D0314B5B6823F0FE427B68F6
:1027A0001B691B062D4913434B601AE02B4B1B681A
:1027B0002A4A23F480731360FDF7CCFF386108E0E8
:1027C000FDF7C8FF02463B69D31A022B01D9032348
:1027D0000EE2224B1B6803F48063002BF0D100E073
:1027E00000BF7B681B6803F00803002B41D07B68A7
:1027F0005B69002B1CD0194BD3F89430174A43F077
:102800000103C2F89430FDF7A5FF386108E0FDF739
:10281000A1FF02463B69D31A022B01D90323E7E14A
:102820000E4BD3F8943003F00203002BEFD020E0DE
:102830000A4BD3F89430094A23F00103C2F89430CC
:10284000FDF788FF38610DE0FDF784FF02463B6924
:10285000D31A022B06D90323CAE100BF001002409D
:10286000040000208C4BD3F8943003F00203002BBB
:10287000EAD17B681B6803F00403002B00F0A680FC
:102880000023FB77844B9B6D03F08053002B01D119
:10289000012300E00023002B0DD07F4B9B6D7E4A6F
:1028A00043F0805393657C4B9B6D03F08053FB603A
:1028B000FB680123FB77794B1B6803F48073002BC3
:1028C00018D1764B1B68754A43F480731360FDF78B
:1028D00041FF386108E0FDF73DFF02463B69D31A2E
:1028E000022B01D9032383E16C4B1B6803F4807333
:1028F000002BF0D07B689B68012B08D1664BD3F886
:102900009030654A43F00103C2F8903024E07B68C0
:102910009B68052B10D1604BD3F890305E4A43F092
:102920000403C2F890305C4BD3F890305A4A43F01D
:102930000103C2F890300FE0574BD3F89030564A5D
:1029400023F00103C2F89030534BD3F89030524A31
:1029500023F00403C2F890307B689B68002B16D0EC
:10296000FDF7F8FE38610AE0FDF7F4FE02463B6928
:10297000D31A41F28832934201D9032338E1464BFE
:10298000D3F8903003F00203002BEDD015E0FDF7F3
:10299000E1FE38610AE0FDF7DDFE02463B69D31A2D
:1029A00041F28832934201D9032321E13A4BD3F813
:1029B000903003F00203002BEDD1FB7F012B05D1FA
:1029C000354B9B6D344A23F0805393657B681B68BD
:1029D00003F02003002B3CD07B689B69002B1CD0AC
:1029E0002D4BD3F898302C4A43F00103C2F89830AD
:1029F000FDF7B0FE386108E0FDF7ACFE02463B692A
:102A0000D31A022B01D90323F2E0234BD3F89830D9
:102A100003F00203002BEFD01BE01F4BD3F89830DC
:102A20001D4A23F00103C2F89830FDF793FE386188
:102A300008E0FDF78FFE02463B69D31A022B01D94D
:102A40000323D5E0144BD3F8983003F00203002B96
:102A5000EFD17B68DB69002B00F0C9800E4B9B68CF
:102A600003F00C030C2B00F083807B68DB69022BE6
:102A70005ED1094B1B68084A23F080731360FDF791
:102A800069FE38610CE0FDF765FE02463B69D31A2A
:102A9000022B05D90323ABE0001002400070004078
:102AA000554B1B6803F00073002BECD1524BDA68D6
:102AB000524B13407A68116A7A68526A013A1201DD
:102AC00011437A68926A120211437A68126B5208B3
:102AD000013A520511437A68526B5208013A520684
:102AE00011437A68D26AD2060A4343491343CB6042
:102AF000414B1B68404A43F0807313603E4BDB68D8
:102B00003D4A43F08073D360FDF724FE386108E04E
:102B1000FDF720FE02463B69D31A022B01D903239D
:102B200066E0354B1B6803F00073002BF0D05EE0CD
:102B3000314B1B68304A23F080731360FDF70AFEA7
:102B4000386108E0FDF706FE02463B69D31A022B06
:102B500001D903234CE0284B1B6803F00073002BC2
:102B6000F0D1254BDA682449254B1340CB603EE079
:102B70007B68DB69012B01D1012339E01E4BDB6847
:102B80007B617B6903F003027B681B6A9A422CD14C
:102B90007B6903F0F0027B685B6A013B1B019A4290
:102BA00023D17B6903F4FE427B689B6A1B029A4235
:102BB0001BD17B6903F078427B68DB6ADB069A42B3
:102BC00013D17B6903F4C0027B681B6B5B08013B7C
:102BD0005B059A4209D17B6903F0C0627B685B6B3D
:102BE0005B08013B5B069A4201D0012300E0002311
:102BF00018462037BD4680BD001002400C809F0162
:102C0000FCFFEEFE80B586B000AF7860396000232F
:102C10007B617B68002B01D101231EE1914B1B6876
:102C200003F00F033A689A4210D98E4B1B6823F0C9
:102C30000F028C493B6813430B608A4B1B6803F0FF
:102C40000F033A689A4201D0012306E17B681B68B2
:102C500003F00103002B73D07B685B68032B29D141
:102C6000814B1B6803F00073002B01D10123F4E0BA
:102C700000F066F938613B697C4A93423FD97A4B50
:102C80009B6803F0F003002B09D07B681B6803F0FE
:102C90000203002B33D07B689B68002B2FD1724B33
:102CA0009B6823F0F003704A43F080039360802315
:102CB0007B6124E07B685B68022B07D16A4B1B6851
:102CC00003F40033002B09D10123C6E0664B1B68D7
:102CD00003F48063002B01D10123BEE000F0CEF8A5
:102CE00038613B69614A934209D95F4B9B6823F085
:102CF000F0035D4A43F08003936080237B615A4B6D
:102D00009B6823F003027B685B68574913438B6021
:102D1000FDF720FDF8600AE0FDF71CFD0246FB68A8
:102D2000D31A41F28832934201D9032395E04E4BE6
:102D30009B6803F00C027B685B689B009A42EBD1B6
:102D40007B681B6803F00203002B23D07B681B68A1
:102D500003F00403002B05D0434B9B68424A43F425
:102D6000E06393607B681B6803F00803002B07D0C7
:102D70003D4B9B6823F47C533B4A43F4E0639360F0
:102D8000394B9B6823F0F0027B689B6836491343FC
:102D90008B6008E07B69802B05D1334B9B68324AFE
:102DA00023F0F00393602F4B1B6803F00F033A6886
:102DB0009A421DD22B4B1B6823F00F0229493B6816
:102DC00013430B60FDF7C6FCF8600AE0FDF7C2FC98
:102DD0000246FB68D31A41F28832934201D9032399
:102DE0003BE0204B1B6803F00F033A689A42EDD199
:102DF0007B681B6803F00403002B08D01A4B9B6808
:102E000023F4E0627B68DB68174913438B607B68BF
:102E10001B6803F00803002B09D0134B9B6823F4B5
:102E200060527B681B69DB000F4913438B6000F025
:102E300025F802460C4B9B681B0903F00F030C4955
:102E4000CB5C03F01F0322FA03F30A4A13600A4B18
:102E50001B681846FDF732FC034618461837BD4676
:102E600080BD00BF002002400010024000B4C40436
:102E7000D88A0008000000200400002080B487B039
:102E800000AF2C4B9B6803F00C03042B02D12A4BA0
:102E90003B6147E0274B9B6803F00C03082B02D1F2
:102EA000264B3B613EE0234B9B6803F00C030C2B4D
:102EB00036D1204BDB6803F00303FB601D4BDB685E
:102EC0001B0903F00F030133BB60FB68032B0CD11C
:102ED0001A4ABB68B2FBF3F3164AD268120A02F030
:102EE0007F0202FB03F37B610CE0134ABB68B2FB79
:102EF000F3F3104AD268120A02F07F0202FB03F3D6
:102F00007B6100BF0B4BDB685B0E03F003030133F7
:102F10005B007B607A697B68B2FBF3F33B6101E0A5
:102F200000233B613B6918461C37BD465DF8047BB6
:102F3000704700BF001002400024F40000127A0025
:102F400080B487B000AF1E4BDB6803F003033B6126
:102F50001B4BDB681B0903F00F030133FB603B696C
:102F6000032B0CD1174AFB68B2FBF3F3144AD26867
:102F7000120A02F07F0202FB03F37B610CE0124AAB
:102F8000FB68B2FBF3F30E4AD268120A02F07F022A
:102F900002FB03F37B6100BF094BDB685B0E03F0B0
:102FA000030301335B00BB607A69BB68B2FBF3F3D8
:102FB0007B607B6818461C37BD465DF8047B704714
:102FC0000010024000127A000024F40080B586B0A0
:102FD00000AF78600023FB740023BB747B681B6820
:102FE00003F40023002B00F0988000237B74434BF4
:102FF0009B6D03F08053002B0DD1404B9B6D3F4ADE
:1030000043F0805393653D4B9B6D03F08053BB6051
:10301000BB6801237B743A4B1B68394A43F48073C5
:103020001360FDF797FBF86009E0FDF793FB02469C
:10303000FB68D31A022B02D90323FB7405E0304B43
:103040001B6803F48073002BEFD0FB7C002B59D15D
:103050002A4BD3F8903003F440737B617B69002BDB
:103060001ED07B681B6C7A699A4219D0234BD3F827
:10307000903023F440737B61204BD3F890301F4A8B
:1030800043F48033C2F890301C4BD3F890301B4A85
:1030900023F48033C2F89030184A7B69C2F890302C
:1030A0007B6903F00103002B16D0FDF753FBF8609A
:1030B0000BE0FDF74FFB0246FB68D31A41F2883262
:1030C000934202D90323FB7406E00C4BD3F89030F3
:1030D00003F00203002BECD0FB7C002B0BD1074B41
:1030E000D3F8903023F440727B681B6C0349134380
:1030F000C1F8903008E0FB7CBB7405E00010024092
:1031000000700040FB7CBB747B7C012B05D1A64B7F
:103110009B6DA54A23F0805393657B681B6803F081
:103120000103002B0AD0A04BD3F8883023F0030210
:103130007B685B689C491343C1F888307B681B68D7
:1031400003F00203002B0AD0974BD3F8883023F00A
:103150000C027B689B6894491343C1F888307B68F4
:103160001B6803F00403002B0AD08F4BD3F8883080
:1031700023F030027B68DB688B491343C1F8883049
:103180007B681B6803F00803002B0AD0864BD3F83A
:10319000883023F0C0027B681B6983491343C1F860
:1031A00088307B681B6803F02003002B0AD07E4B1D
:1031B000D3F8883023F440627B685B697A49134313
:1031C000C1F888307B681B6803F04003002B0AD0ED
:1031D000754BD3F8883023F440527B689B69724961
:1031E0001343C1F888307B681B6803F08003002B11
:1031F0000AD06D4BD3F8883023F440427B68DB69FA
:1032000069491343C1F888307B681B6803F48073F5
:10321000002B0AD0644BD3F8883023F440327B680B
:103220001B6A61491343C1F888307B681B6803F44B
:103230000073002B0AD05C4BD3F8883023F4402273
:103240007B685B6A58491343C1F888307B681B6808
:1032500003F48063002B15D0534BD3F8883023F44C
:1032600040127B689B6A50491343C1F888307B68E1
:103270009B6AB3F5801F05D14B4BDB684A4A43F488
:103280008013D3607B681B6803F40063002B15D0A8
:10329000454BD3F8883023F440027B68DB6A42490F
:1032A0001343C1F888307B68DB6AB3F5800F05D122
:1032B0003D4BDB683C4A43F48013D3607B681B685A
:1032C00003F48053002B15D0374BD3F8883023F00C
:1032D00040727B681B6B34491343C1F888307B68AC
:1032E0001B6BB3F1807F05D12F4BDB682E4A43F473
:1032F0008013D3607B681B6803F40053002B15D048
:10330000294BD3F8883023F040627B685B6B2649F9
:103310001343C1F888307B685B6BB3F1006F05D154
:10332000214BDB68204A43F48013D3607B681B6821
:1033300003F48043002B15D01B4BD3F8883023F0C7
:1033400040627B689B6B18491343C1F888307B68E7
:103350009B6BB3F1006F05D1134BDB68124A43F44A
:103360008013D3607B681B6803F40043002B15D0E7
:103370000D4BD3F8883023F040527B68DB6B0A4951
:103380001343C1F888307B68DB6BB3F1805F05D1F4
:10339000054BDB68044A43F48033D360BB7C18469A
:1033A0001837BD4680BD00BF0010024080B485B014
:1033B00000AF78607B680022A3F844204BF680734E
:1033C000FB60FB689AB27B68A3F840200023184694
:1033D0001437BD465DF8047B704780B485B000AFFC
:1033E00078604BF68073FB607B68B3F840309AB22C
:1033F000FB689BB2DB439BB213409AB27B68A3F895
:103400004020002318461437BD465DF8047B704702
:1034100080B485B000AFF8603B1D83E80600FB6810
:103420000122A3F84020FB680022A3F84020FB689B
:103430000022A3F84420FB680022A3F850200023B8
:1034400018461437BD465DF8047B704780B4A7B0BA
:1034500000AF78603960002387F897307A683B685E
:103460001B789B0013441B889BB223F4EC4323F08E
:103470007003A7F894303B68DB78032B1FD801A2B8
:1034800052F823F095340008B1340008C73400081E
:10349000A3340008B7F8943043F40073A7F89430CD
:1034A00012E0B7F8943043F4C063A7F894300BE00F
:1034B000B7F8943043F48063A7F8943004E0012314
:1034C00087F8973000E000BF7A683B681B789B0064
:1034D0001A44B7F8943043F07F4343F47F0343F436
:1034E000004343F080039BB213807A683B681B78EB
:1034F0009B0013441B889BB21BB223F4E04323F0D0
:1035000070031AB23B681B781BB213431BB2A7F8B7
:1035100086307A683B681B789B001A44B7F886307F
:1035200043F07F4343F47F0343F4004343F08003BD
:103530009BB213803B681B7B002B40F080813B6873
:103540005B78002B00F084807B68BB617B68B3F8FC
:1035500050309BB21A46BB691344BB613B681B7871
:10356000DA00BB69134403F580637B613B68DB8849
:103570005B089BB25B009AB27B691A807A683B68F1
:103580001B789B0013441B887B827B8A03F04003DB
:10359000002B1BD07A683B681B789B0013441B8868
:1035A0009BB223F4E04323F070033B827A683B68CC
:1035B0001B789B001A443B8A43F07F4343F47F030C
:1035C00043F4004343F0C0039BB213803B68DB78B5
:1035D000012B20D07A683B681B789B0013441B8822
:1035E0009BB223F4E04323F04003BB81BB8983F00B
:1035F0002003BB817A683B681B789B001A44BB8917
:1036000043F07F4343F47F0343F4004343F08003DC
:103610009BB21380F9E37A683B681B789B001344E4
:103620001B889BB223F4E04323F04003FB817A68BC
:103630003B681B789B001A44FB8943F07F4343F4AB
:103640007F0343F4004343F080039BB21380DCE329
:103650007B683B637B68B3F850309BB21A463B6B88
:1036600013443B633B681B78DA003B6B134403F263
:103670000443FB623B68DB885B089BB25B009AB249
:10368000FB6A1A807B68BB627B68B3F850309BB2E0
:103690001A46BB6A1344BB623B681B78DA00BB6AFC
:1036A000134403F206437B627B6A1B889BB2C3F31D
:1036B00009039AB27B6A1A803B681B69002B0AD106
:1036C0007B6A1B889BB26FEA43436FEA53439AB20B
:1036D0007B6A1A8041E03B681B693E2B1CD83B6823
:1036E0001B695B08C7F890303B681B6903F0010356
:1036F000002B04D0D7F890300133C7F890307B6AA4
:103700001B889AB2D7F890309BB29B029BB21343AE
:103710009AB27B6A1A8020E03B681B695B09C7F894
:1037200090303B681B6903F01F03002B04D1D7F8CE
:103730009030013BC7F890307B6A1B889AB2D7F86B
:1037400090309BB29B029BB213439BB26FEA434300
:103750006FEA53439AB27B6A1A807A683B681B7897
:103760009B0013441B887B847B8C03F48043002BD9
:103770001BD07A683B681B789B0013441B889BB264
:1037800023F4E04323F070033B847A683B681B78A2
:103790009B001A443B8C43F07F4343F47F0343F484
:1037A000404343F080039BB213803B681B78002B9F
:1037B00024D17A683B681B789B0013441B889BB21A
:1037C00023F4804323F07003BB83BB8B83F48053CB
:1037D000BB83BB8B83F40053BB837A683B681B7845
:1037E0009B001A44BB8B43F07F4343F47F0343F4B5
:1037F000004343F080039BB2138006E37A683B6882
:103800001B789B0013441B889BB223F4804323F056
:103810007003FB83FB8B83F40053FB837A683B6864
:103820001B789B001A44FB8B43F07F4343F47F03D8
:1038300043F4004343F080039BB21380E5E23B680E
:10384000DB78022B1ED17A683B681B789B001344FF
:103850001B889BB223F4E04323F07003A7F8823067
:103860007A683B681B789B001A44B7F8823043F0B3
:103870007F4343F47F0343F4014343F080039BB24F
:1038800013801DE07A683B681B789B0013441B88FB
:103890009BB223F4E24323F07003A7F884307A68E4
:1038A0003B681B789B001A44B7F8843043F07F4391
:1038B00043F47F0343F4004343F080039BB213803F
:1038C0007B68FB677B68B3F850309BB21A46FB6F8E
:1038D0001344FB673B681B78DA00FB6F134403F566
:1038E0008063BB673B681B895B089BB25B009AB235
:1038F000BB6F1A807B687B677B68B3F850309BB2E4
:103900001A467B6F13447B673B681B78DA007B6F3A
:10391000134403F204433B673B685B895B089BB23B
:103920005B009AB23B6F1A803B685B78002B40F0DB
:10393000AF817A683B681B789B0013441B88A7F80B
:103940006030B7F8603003F48043002B1DD07A68F4
:103950003B681B789B0013441B889BB223F4E04315
:1039600023F07003A7F85E307A683B681B789B00F1
:103970001A44B7F85E3043F07F4343F47F0343F4C7
:10398000404343F080039BB213807A683B681B7806
:103990009B0013441B88A7F85C30B7F85C3003F039
:1039A0004003002B1DD07A683B681B789B001344B2
:1039B0001B889BB223F4E04323F07003A7F85A302E
:1039C0007A683B681B789B001A44B7F85A3043F07A
:1039D0007F4343F47F0343F4004343F0C0039BB2AF
:1039E00013803B685B78002B6BD17B68FB647B6842
:1039F000B3F850309BB21A46FB6C1344FB643B682F
:103A00001B78DA00FB6C134403F20243BB64BB6C0B
:103A10001B889BB2C3F309039AB2BB6C1A803B6844
:103A20001B69002B0AD1BB6C1B889BB26FEA434316
:103A30006FEA53439AB2BB6C1A805DE03B681B6926
:103A40003E2B1CD83B681B695B08C7F88C303B6871
:103A50001B6903F00103002B04D0D7F88C3001332D
:103A6000C7F88C30BB6C1B889AB2D7F88C309BB2ED
:103A70009B029BB213439AB2BB6C1A803CE03B683A
:103A80001B695B09C7F88C303B681B6903F01F0397
:103A9000002B04D1D7F88C30013BC7F88C30BB6CBD
:103AA0001B889AB2D7F88C309BB29B029BB213430F
:103AB0009BB26FEA43436FEA53439AB2BB6C1A80DE
:103AC0001AE03B685B78012B16D17B687B657B68CD
:103AD000B3F850309BB21A467B6D13447B653B684C
:103AE0001B78DA007B6D134403F202433B653B68AD
:103AF0001B699AB23B6D1A807B687B643B685B787C
:103B0000002B6BD17B68FB637B68B3F850309BB2B2
:103B10001A46FB6B1344FB633B681B78DA00FB6BB4
:103B2000134403F20643BB63BB6B1B889BB2C3F316
:103B300009039AB2BB6B1A803B681B69002B0AD140
:103B4000BB6B1B889BB26FEA43436FEA53439AB245
:103B5000BB6B1A805BE03B681B693E2B1CD83B6843
:103B60001B695B08C7F888303B681B6903F00103D9
:103B7000002B04D0D7F888300133C7F88830BB6BEE
:103B80001B889AB2D7F888309BB29B029BB2134332
:103B90009AB2BB6B1A803AE03B681B695B09C7F8B5
:103BA00088303B681B6903F01F03002B04D1D7F852
:103BB0008830013BC7F88830BB6B1B889AB2D7F8B6
:103BC00088309BB29B029BB213439BB26FEA434384
:103BD0006FEA53439AB2BB6B1A8018E03B685B787C
:103BE000012B14D17B68B3F850309BB21A467B6C22
:103BF00013447B643B681B78DA007B6C134403F24C
:103C000006433B643B681B699AB23B6C1A807A6836
:103C10003B681B789B0013441B889BB223F48043B2
:103C200023F07003FB86FB8E83F48053FB86FB8EB0
:103C300083F40053FB867A683B681B789B001A4428
:103C4000FB8E43F07F4343F47F0343F4004343F090
:103C500080039BB213807A683B681B789B001344F7
:103C60001B889BB223F4E04323F04003BB867A68B1
:103C70003B681B789B001A44BB8E43F07F4343F4A0
:103C80007F0343F4004343F080039BB21380BCE006
:103C90007A683B681B789B0013441B88A7F86E303A
:103CA000B7F86E3003F48043002B1DD07A683B6870
:103CB0001B789B0013441B889BB223F4E04323F042
:103CC0007003A7F86C307A683B681B789B001A4435
:103CD000B7F86C3043F07F4343F47F0343F4404331
:103CE00043F080039BB213807A683B681B789B008B
:103CF00013441B88A7F86A30B7F86A3003F0400312
:103D0000002B1DD07A683B681B789B0013441B88EE
:103D10009BB223F4E04323F07003A7F868307A687D
:103D20003B681B789B001A44B7F8683043F07F4328
:103D300043F47F0343F4004343F0C0039BB213807A
:103D40003B68DB78012B24D07A683B681B789B00AA
:103D500013441B889BB223F4E04323F04003A7F8ED
:103D60006430B7F8643083F02003A7F864307A68D1
:103D70003B681B789B001A44B7F8643043F07F43DC
:103D800043F47F0343F4004343F080039BB213806A
:103D90001DE07A683B681B789B0013441B889BB22C
:103DA00023F4E04323F04003A7F866307A683B68C9
:103DB0001B789B001A44B7F8663043F07F4343F406
:103DC0007F0343F4004343F080039BB213807A687F
:103DD0003B681B789B0013441B889BB223F48043F1
:103DE00023F07003A7F862307A683B681B789B0069
:103DF0001A44B7F8623043F07F4343F47F0343F43F
:103E0000004343F080039BB2138097F89730184625
:103E10009C37BD465DF8047B704700BF80B48DB011
:103E200000AF786039603B681B7B002B40F08E80D0
:103E30003B685B78002B44D07A683B681B789B001A
:103E400013441B88BB81BB8903F04003002B1BD0AC
:103E50007A683B681B789B0013441B889BB223F451
:103E6000E04323F070037B817A683B681B789B00FA
:103E70001A447B8943F07F4343F47F0343F40043B8
:103E800043F0C0039BB213807A683B681B789B00A9
:103E900013441B889BB223F4E04323F040033B818F
:103EA0007A683B681B789B001A443B8943F07F4348
:103EB00043F47F0343F4004343F080039BB2138039
:103EC00092E17A683B681B789B0013441B887B82D5
:103ED0007B8A03F48043002B1BD07A683B681B78F5
:103EE0009B0013441B889BB223F4E04323F0700330
:103EF0003B827A683B681B789B001A443B8A43F0FC
:103F00007F4343F47F0343F4404343F080039BB279
:103F100013807A683B681B789B0013441B889BB214
:103F200023F4804323F07003FB817A683B681B789D
:103F30009B001A44FB8943F07F4343F47F0343F41F
:103F4000004343F080039BB213804DE13B685B78F4
:103F5000002B40F0A5807A683B681B789B001344D7
:103F60001B883B843B8C03F48043002B1BD07A6876
:103F70003B681B789B0013441B889BB223F4E043EF
:103F800023F07003FB837A683B681B789B001A441C
:103F9000FB8B43F07F4343F47F0343F4404343F000
:103FA00080039BB213807A683B681B789B001344A4
:103FB0001B88BB83BB8B03F04003002B1BD07A68AC
:103FC0003B681B789B0013441B889BB223F4E0439F
:103FD00023F070037B837A683B681B789B001A444C
:103FE0007B8B43F07F4343F47F0343F4004343F070
:103FF000C0039BB213807A683B681B789B00134414
:104000001B889BB223F4E04323F070033B837A6860
:104010003B681B789B001A443B8B43F07F4343F47F
:104020007F0343F4004343F0C0039BB213807A68DC
:104030003B681B789B0013441B889BB223F480438E
:1040400023F07003FB827A683B681B789B001A445C
:10405000FB8A43F07F4343F47F0343F4004343F080
:1040600080039BB213807A683B681B789B001344E3
:104070001B889BB223F4E04323F04003BB827A68A1
:104080003B681B789B001A44BB8A43F07F4343F490
:104090007F0343F4004343F080039BB21380A3E00B
:1040A0007A683B681B789B0013441B88FB85FB8D5B
:1040B00003F48043002B1BD07A683B681B789B007D
:1040C00013441B889BB223F4E04323F07003BB85A9
:1040D0007A683B681B789B001A44BB8D43F07F4392
:1040E00043F47F0343F4404343F080039BB21380C7
:1040F0007A683B681B789B0013441B887B857B8D0B
:1041000003F04003002B1BD07A683B681B789B00B0
:1041100013441B889BB223F4E04323F070033B85D8
:104120007A683B681B789B001A443B8D43F07F43C1
:1041300043F47F0343F4004343F0C0039BB2138076
:104140007A683B681B789B0013441B889BB223F45E
:10415000E04323F07003FB847A683B681B789B0084
:104160001A44FB8C43F07F4343F47F0343F4404302
:1041700043F080039BB213807A683B681B789B00F6
:1041800013441B889BB223F4E04323F04003BB8419
:104190007A683B681B789B001A44BB8C43F07F43D2
:1041A00043F47F0343F4004343F080039BB2138046
:1041B0007A683B681B789B0013441B889BB223F4EE
:1041C000804323F070037B847A683B681B789B00F4
:1041D0001A447B8C43F07F4343F47F0343F4004352
:1041E00043F080039BB21380002318463437BD464A
:1041F0005DF8047B704780B5ACB000AF7860396083
:104200003B685B78012B40F0CA843B689A693B6845
:104210001B699A4204D93B681B69C7F8AC3003E0BC
:104220003B689B69C7F8AC303B681B7B002B22D1F5
:104230003B6859693B68DA88D7F8AC309BB278683C
:1042400000F0BDFE7B683B617B68B3F850309BB2E9
:104250001A463B6913443B613B681B78DA003B69B3
:10426000134403F20243FB60D7F8AC309AB2FB6808
:104270001A8000F06FBC3B68DB78022B40F01E8395
:104280003B681A6A3B681B699A4240F2CF827A689F
:104290003B681B789B0013441B889BB223F4E043CC
:1042A00023F07003A7F856307A683B681B789B00B0
:1042B0001A44B7F8563043F07F4343F47F0343F486
:1042C000014343F080039BB213803B681A6AD7F81E
:1042D000AC30D21A3B681A627A683B681B789B0044
:1042E00013441B889BB203F04003002B00F04F8166
:1042F0007B683B633B685B78002B6BD17B68BB6260
:104300007B68B3F850309BB21A46BB6A1344BB6259
:104310003B681B78DA00BB6A134403F206437B62F6
:104320007B6A1B889BB2C3F309039AB27B6A1A802B
:10433000D7F8AC30002B0AD17B6A1B889BB26FEA9E
:1043400043436FEA53439AB27B6A1A805BE0D7F823
:10435000AC303E2B1CD8D7F8AC305B08C7F8A8307F
:10436000D7F8AC3003F00103002B04D0D7F8A83005
:104370000133C7F8A8307B6A1B889AB2D7F8A830F7
:104380009BB29B029BB213439AB27B6A1A803AE0BB
:10439000D7F8AC305B09C7F8A830D7F8AC3003F0D9
:1043A0001F03002B04D1D7F8A830013BC7F8A83071
:1043B0007B6A1B889AB2D7F8A8309BB29B029BB24B
:1043C00013439BB26FEA43436FEA53439AB27B6A4B
:1043D0001A8018E03B685B78012B14D17B68B3F836
:1043E00050309BB21A463B6B13443B633B681B78CF
:1043F000DA003B6B134403F20643FB62D7F8AC30A0
:104400009AB2FB6A1A803B685B89A7F876303B68F2
:104410005969D7F8AC309BB2B7F87620786800F0CD
:10442000CEFD3B685A69D7F8AC301A443B685A61F4
:104430003B681A6A3B681B699A4207D93B681A6A4B
:10444000D7F8AC30D21A3B681A6206E03B681B6AA8
:10445000C7F8AC303B6800221A623B685B78002BDF
:104460006BD17B68BB617B68B3F850309BB21A4656
:10447000BB691344BB613B681B78DA00BB6913441A
:1044800003F202437B617B691B889BB2C3F3090380
:104490009AB27B691A80D7F8AC30002B0AD17B69BD
:1044A0001B889BB26FEA43436FEA53439AB27B691E
:1044B0001A805DE0D7F8AC303E2B1CD8D7F8AC3072
:1044C0005B08C7F8A430D7F8AC3003F00103002B29
:1044D00004D0D7F8A4300133C7F8A4307B691B8817
:1044E0009AB2D7F8A4309BB29B029BB213439AB204
:1044F0007B691A803CE0D7F8AC305B09C7F8A43080
:10450000D7F8AC3003F01F03002B04D1D7F8A43048
:10451000013BC7F8A4307B691B889AB2D7F8A43056
:104520009BB29B029BB213439BB26FEA43436FEA79
:1045300053439AB27B691A801AE03B685B78012B7F
:1045400016D17B683B627B68B3F850309BB21A4649
:104550003B6A13443B623B681B78DA003B6A1344B6
:1045600003F20243FB61D7F8AC309AB2FB691A80C0
:104570003B681B89A7F876303B685969D7F8AC309F
:104580009BB2B7F87620786800F019FDE2E23B684C
:104590005B78002B6BD17B68BB647B68B3F85030D1
:1045A0009BB21A46BB6C1344BB643B681B78DA00B1
:1045B000BB6C134403F202437B647B6C1B889BB28D
:1045C000C3F309039AB27B6C1A80D7F8AC30002B86
:1045D0000AD17B6C1B889BB26FEA43436FEA53435B
:1045E0009AB27B6C1A805DE0D7F8AC303E2B1CD8B9
:1045F000D7F8AC305B08C7F8A030D7F8AC3003F080
:104600000103002B04D0D7F8A0300133C7F8A03045
:104610007B6C1B889AB2D7F8A0309BB29B029BB2EE
:1046200013439AB27B6C1A803CE0D7F8AC305B093C
:10463000C7F8A030D7F8AC3003F01F03002B04D12B
:10464000D7F8A030013BC7F8A0307B6C1B889AB22A
:10465000D7F8A0309BB29B029BB213439BB26FEA88
:1046600043436FEA53439AB27B6C1A801AE03B686B
:104670005B78012B16D17B683B657B68B3F85030C3
:104680009BB21A463B6D13443B653B681B78DA00CE
:104690003B6D134403F20243FB64D7F8AC309AB28B
:1046A000FB6C1A803B681B89A7F876303B68596918
:1046B000D7F8AC309BB2B7F87620786800F07FFC72
:1046C0003B685A69D7F8AC301A443B685A613B687A
:1046D0001A6A3B681B699A4207D93B681A6AD7F87D
:1046E000AC30D21A3B681A6206E03B681B6AC7F816
:1046F000AC303B6800221A627B683B643B685B78A5
:10470000002B6BD17B68BB637B68B3F850309BB2E6
:104710001A46BB6B1344BB633B681B78DA00BB6B68
:10472000134403F206437B637B6B1B889BB2C3F38A
:1047300009039AB27B6B1A80D7F8AC30002B0AD1F0
:104740007B6B1B889BB26FEA43436FEA53439AB279
:104750007B6B1A805BE0D7F8AC303E2B1CD8D7F8C7
:10476000AC305B08C7F89C30D7F8AC3003F00103DD
:10477000002B04D0D7F89C300133C7F89C307B6BFA
:104780001B889AB2D7F89C309BB29B029BB2134312
:104790009AB27B6B1A803AE0D7F8AC305B09C7F865
:1047A0009C30D7F8AC3003F01F03002B04D1D7F8AE
:1047B0009C30013BC7F89C307B6B1B889AB2D7F8C2
:1047C0009C309BB29B029BB213439BB26FEA434364
:1047D0006FEA53439AB27B6B1A8018E03B685B78B0
:1047E000012B14D17B68B3F850309BB21A463B6C56
:1047F00013443B643B681B78DA003B6C134403F2C0
:104800000643FB63D7F8AC309AB2FB6B1A803B6867
:104810005B89A7F876303B685969D7F8AC309BB212
:10482000B7F87620786800F0CAFB93E13B681B6A12
:10483000C7F8AC307A683B681B789B0013441B8830
:104840009BB223F4E24323F07003A7F862307A6846
:104850003B681B789B001A44B7F8623043F07F43F3
:1048600043F47F0343F4004343F080039BB213807F
:104870007B68FB657B68B3F850309BB21A46FB6DD2
:104880001344FB653B681B78DA00FB6D134403F2AD
:104890000243BB65D7F8AC309AB2BB6D1A803B6857
:1048A0001B89A7F876303B685969D7F8AC309BB2C2
:1048B000B7F87620786800F082FB4BE13B681A6A13
:1048C000D7F8AC30D21A3B681A627A683B681B781A
:1048D0009B0013441B889BB203F04003002B00F0A5
:1048E0009A807B683B673B685B78002B6BD17B6869
:1048F000BB667B68B3F850309BB21A46BB6E13445C
:10490000BB663B681B78DA00BB6E134403F20643B8
:104910007B667B6E1B889BB2C3F309039AB27B6EE6
:104920001A80D7F8AC30002B0AD17B6E1B889BB263
:104930006FEA43436FEA53439AB27B6E1A805BE09F
:10494000D7F8AC303E2B1CD8D7F8AC305B08C7F892
:104950009830D7F8AC3003F00103002B04D0D7F81F
:1049600098300133C7F898307B6E1B889AB2D7F81D
:1049700098309BB29B029BB213439AB27B6E1A8013
:104980003AE0D7F8AC305B09C7F89830D7F8AC30CC
:1049900003F01F03002B04D1D7F89830013BC7F870
:1049A00098307B6E1B889AB2D7F898309BB29B02E6
:1049B0009BB213439BB26FEA43436FEA53439AB2ED
:1049C0007B6E1A8018E03B685B78012B14D17B6802
:1049D000B3F850309BB21A463B6F13443B673B68B9
:1049E0001B78DA003B6F134403F20643FB66D7F8EB
:1049F000AC309AB2FB6E1A803B685B89A7F87630C0
:104A00003B685969D7F8AC309BB2B7F87620786824
:104A100000F0D5FA9EE03B685B78002B6BD17B6899
:104A2000FB677B68B3F850309BB21A46FB6F1344A8
:104A3000FB673B681B78DA00FB6F134403F2024309
:104A4000BB67BB6F1B889BB2C3F309039AB2BB6FF2
:104A50001A80D7F8AC30002B0AD1BB6F1B889BB2F1
:104A60006FEA43436FEA53439AB2BB6F1A8063E025
:104A7000D7F8AC303E2B1CD8D7F8AC305B08C7F861
:104A80009430D7F8AC3003F00103002B04D0D7F8F2
:104A900094300133C7F89430BB6F1B889AB2D7F8B3
:104AA00094309BB29B029BB213439AB2BB6F1A80A5
:104AB00042E0D7F8AC305B09C7F89430D7F8AC3097
:104AC00003F01F03002B04D1D7F89430013BC7F843
:104AD0009430BB6F1B889AB2D7F894309BB29B027C
:104AE0009BB213439BB26FEA43436FEA53439AB2BC
:104AF000BB6F1A8020E03B685B78012B1CD17B6880
:104B0000C7F884307B68B3F850309BB21A46D7F8A8
:104B100084301344C7F884303B681B78DA00D7F838
:104B20008430134403F20243C7F88030D7F8AC3026
:104B30009AB2D7F880301A803B681B89A7F8763084
:104B40003B685969D7F8AC309BB2B7F876207868E3
:104B500000F035FA7A683B681B789B0013441B8889
:104B60009BB223F4E04323F040037B817B8983F0F5
:104B700010037B817B8983F020037B817A683B680B
:104B80001B789B001A447B8943F07F4343F47F03E7
:104B900043F4004343F080039BB21380D5E03B68AD
:104BA0001B7B002B56D13B689B69002B22D13B68B5
:104BB000DB78002B1ED17A683B681B789B0013447E
:104BC0001B889BB223F4E04323F07003A7F88E30D8
:104BD0007A683B681B789B001A44B7F88E3043F024
:104BE0007F4343F47F0343F4014343F080039BB2CC
:104BF00013801DE07A683B681B789B0013441B8878
:104C00009BB223F4E24323F07003A7F88C307A6858
:104C10003B681B789B001A44B7F88C3043F07F4305
:104C200043F47F0343F4004343F080039BB21380BB
:104C30003B689A693B681B699A4207D93B689A6945
:104C40003B681B69D21A3B689A6154E03B680022BA
:104C50009A6150E03B68DB78022B42D13B68DB690C
:104C6000002B48D07A683B681B789B0013441B8854
:104C7000A7F89230B7F8923003F48043002B05D0A8
:104C8000B7F8923003F04003002B0BD1B7F8923005
:104C900003F48043002B2ED1B7F8923003F0400389
:104CA000002B28D17A683B681B789B0013441B8833
:104CB0009BB223F4E04323F07003A7F890307A68A6
:104CC0003B681B789B001A44B7F8903043F07F4351
:104CD00043F47F0343F4004343F0C0039BB21380CB
:104CE00009E03B68DB78012B03D13B6800229A6125
:104CF00001E001232AE07A683B681B789B0013449B
:104D00001B889BB223F4804323F07003A7F88A30FA
:104D1000B7F88A3083F48053A7F88A30B7F88A301E
:104D200083F40053A7F88A307A683B681B789B00AD
:104D30001A44B7F88A3043F07F4343F47F0343F4C7
:104D4000004343F080039BB2138000231846B03722
:104D5000BD4680BD80B485B000AF786039603B68E7
:104D60005B78002B20D07A683B681B789B0013444B
:104D70001B889BB223F4E04323F04003BB81BB8933
:104D800083F01003BB817A683B681B789B001A4450
:104D9000BB8943F07F4343F47F0343F4004343F074
:104DA00080039BB213801FE07A683B681B789B00EE
:104DB00013441B889BB223F4804323F07003FB81D0
:104DC000FB8983F48053FB817A683B681B789B00E6
:104DD0001A44FB8943F07F4343F47F0343F40043C9
:104DE00043F080039BB21380002318461437BD465E
:104DF0005DF8047B704780B487B000AF786039609D
:104E00003B685B78002B4CD07A683B681B789B0032
:104E100013441B883B823B8A03F04003002B1BD0CA
:104E20007A683B681B789B0013441B889BB223F471
:104E3000E04323F07003FB817A683B681B789B009A
:104E40001A44FB8943F07F4343F47F0343F4004358
:104E500043F0C0039BB213803B68DB78012B6CD01E
:104E60007A683B681B789B0013441B889BB223F431
:104E7000E04323F04003BB81BB8983F02003BB8167
:104E80007A683B681B789B001A44BB8943F07F43D8
:104E900043F47F0343F4004343F080039BB2138049
:104EA0004BE07A683B681B789B0013441B88FB82AD
:104EB000FB8A03F48043002B1BD07A683B681B7885
:104EC0009B0013441B889BB223F4E04323F0700340
:104ED000BB827A683B681B789B001A44BB8A43F00C
:104EE0007F4343F47F0343F4404343F080039BB28A
:104EF00013807A683B681B789B0013441B889BB225
:104F000023F4804323F070037B827B8A83F48053F5
:104F10007B827B8A83F400537B827A683B681B78B0
:104F20009B001A447B8A43F07F4343F47F0343F49E
:104F3000004343F080039BB21380002318461C37C4
:104F4000BD465DF8047B704780B483B000AF7860E5
:104F50000B46FB70FB78002B03D17B688022A3F803
:104F60004C20002318460C37BD465DF8047B704783
:104F700080B483B000AF78607B68B3F858309BB2E0
:104F80006FEA43436FEA53439AB27B68A3F8582011
:104F9000002318460C37BD465DF8047B704780B48B
:104FA00085B000AF78607B68B3F844309BB2FB609B
:104FB000FB6818461437BD465DF8047B704780B423
:104FC0008BB000AFF860B96011461A460B46FB8003
:104FD0001346BB80BB8801335B08BB61FB687B6108
:104FE000BB68FB61FA887B69134403F580633B620D
:104FF000BB697B621CE0FB691B787B82FB69013328
:105000001B781BB21B021AB2B7F9123013431BB242
:105010007B823B6A7A8A1A803B6A02333B62FB6975
:105020000133FB61FB690133FB617B6A013B7B62FE
:105030007B6A002BDFD100BF00BF2C37BD465DF877
:10504000047B704780B48BB000AFF860B960114644
:105050001A460B46FB801346BB80BB885B089BB29D
:10506000BB61FB687B61BB68FB61FA887B691344A9
:1050700003F580633B62BB697B6218E03B6A1B8877
:105080009BB23B613B6A02333B623B69DAB2FB692C
:105090001A70FB690133FB613B691B0ADAB2FB69D9
:1050A0001A70FB690133FB617B6A013B7B627B6A9F
:1050B000002BE3D1BB8803F001039BB2002B07D088
:1050C0003B6A1B889BB23B613B69DAB2FB691A7091
:1050D00000BF2C37BD465DF8047B704780B500AF3C
:1050E00001F036F900221249124801F069FC03462A
:1050F000002B01D0FBF78FF90F490E4801F08CFC13
:105100000346002B01D0FBF786F90C49094800F053
:1051100011FE0346002B01D0FBF77DF9054801F095
:10512000B9FC0346002B01D0FBF775F900BF80BD29
:105130002000002048060020500100200C00002024
:1051400080B582B000AF0346FB71FB79DB01064AF4
:105150001A44FB790549184600F026FE002318463C
:105160000837BD4680BD00BF640900204806002006
:1051700080B483B000AF0346FB71002318460C37A0
:10518000BD465DF8047B704780B483B000AF3A60E1
:105190001A460346FB710B46BB711346BB80BB79B5
:1051A000232B00F2B68001A252F823F0135300081B
:1051B0001353000813530008135300081353000837
:1051C0001353000813530008135300081353000827
:1051D0001353000813530008135300081353000817
:1051E0001353000813530008135300081353000807
:1051F00013530008135300081353000813530008F7
:1052000013530008135300081353000813530008E6
:1052100013530008135300081353000813530008D6
:105220001353000813530008135300083D5200089D
:105230009D52000813530008135300083B681B7865
:105240001A463B6801331B781B021A433B68023342
:105250001B781B041A433B6803331B781B061A4355
:10526000FB7911462F4A42F83310FB793A681179DD
:105270002C4ADB0013440A461A71FB793A685179CB
:10528000284ADB0013440A465A71FB793A6891793F
:10529000244ADB0013440A469A713BE0FB79214A19
:1052A00052F83330DAB23B681A70FB791D4A52F873
:1052B00033301A0A3B680133D2B21A70FB79194AAB
:1052C00052F833301A0C3B680233D2B21A70FB79B1
:1052D000144A52F833301A0E3B680333D2B21A70B4
:1052E000FB793A6804320F49DB000B441B791370D9
:1052F000FB793A6805320B49DB000B445B7913708C
:10530000FB793A6806320749DB000B449B7913703E
:1053100000E000BF002318460C37BD465DF8047B53
:10532000704700BFE409002080B584B000AF034699
:10533000B9607A60FB737B681B689AB2FB7BB968C3
:10534000184600F025F8FB7BBA680749184600F0BC
:105350002BFDFB7B0449184600F086FD0023184610
:105360001037BD4680BD00BF4806002080B485B020
:1053700000AFB9607A601A460346FB731346BB73ED
:10538000002318461437BD465DF8047B70470000C3
:1053900080B584B000AF03463960FB711346BB8013
:1053A0000023FB730023BB60FB794FF4077202FB01
:1053B00003F30E4A1344BB60BB68D3F81432002BCE
:1053C00001D001230DE0BB88F8793A68084900F064
:1053D000C7FCFB790649184600F004FD0346FB7341
:1053E000FB7B18461037BD4680BD00BF040C002073
:1053F0004806002080B483B000AF03463960FB71DB
:105400003B6812221A80034B18460C37BD465DF8E4
:10541000047B70473C00002080B483B000AF03469B
:105420003960FB713B6804221A80034B18460C3725
:10543000BD465DF8047B70475000002080B582B007
:1054400000AF03463960FB71FB79002B05D13A6848
:105450000749084802F0EBFA04E03A6804490548B5
:1054600002F0E5FA024B18460837BD4680BD00BF82
:10547000EC090020648A000880B582B000AF0346C2
:105480003960FB713A680449044802F0D0FA024BD3
:1054900018460837BD4680BDEC0900207C8A00080C
:1054A00080B582B000AF03463960FB713B681A22B9
:1054B0001A8000F043F8024B18460837BD4680BDFD
:1054C0005400002080B582B000AF03463960FB7104
:1054D000FB79002B05D13A680749084802F0A7FA82
:1054E00004E03A680449054802F0A1FA024B184664
:1054F0000837BD4680BD00BFEC090020908A000837
:1055000080B582B000AF03463960FB71FB79002B98
:1055100005D13A680749084802F089FA04E03A6878
:105520000449054802F083FA024B18460837BD4685
:1055300080BD00BFEC090020A08A000880B584B0BF
:1055400000AF0F4B1B68FB600E4B1B68BB600E4B24
:105550001B687B60FA687B681344FB60FB68002B68
:1055600009D008220949F86800F014F80422084913
:10557000B86800F00FF800BF1037BD4680BD00BF0F
:105580009075FF1F9475FF1F9875FF1F5600002030
:105590006600002080B487B000AFF860B9601346A1
:1055A000FB710023FB750023FB7527E0FB681B0FD5
:1055B000092B0BD8FB681B0FDAB2FB7D5B00194689
:1055C000BB680B443032D2B21A700AE0FB681B0F82
:1055D000DAB2FB7D5B001946BB680B443732D2B2AE
:1055E0001A70FB681B01FB60FB7D5B000133BA682E
:1055F000134400221A70FB7D0133FB75FA7DFB79A1
:105600009A42D3D300BF00BF1C37BD465DF8047B70
:105610007047000080B584B000AF78600B46FB7027
:105620000023BB600023FB73C6E0FB7B4FF40772D3
:1056300002FB03F3654A1344BB607B681B7C002BB1
:105640003DD1FB7B624AD15C4FF400730222786843
:1056500002F0F9FBFB7B5E4AD35C03F00F02796832
:1056600013469B0013449B000B44243301221A80F1
:10567000FB7B584AD15C4FF400730222786802F039
:10568000E2FBFB7B534AD35C03F00F0279681346BD
:105690009B0013449B000B4403F5B27301221A8054
:1056A000FB7B4D4AD35C03F00F02796813469B00E5
:1056B00013449B000B44263310221A803AE0FB7BF4
:1056C000434AD15C40230222786802F0BCFBFB7B9A
:1056D0003F4AD35C03F00F02796813469B001344E2
:1056E0009B000B44243301221A80FB7B394AD15C96
:1056F00040230222786802F0A6FBFB7B354AD35C8C
:1057000003F00F02796813469B0013449B000B447F
:1057100003F5B27301221A80FB7B2F4AD35C03F09E
:105720000F02796813469B0013449B000B442633F9
:1057300010221A80FB7B284AD15C08230322786858
:1057400002F081FBFB7B244AD35C03F00F027968F3
:1057500013469B0013449B000B44243301221A8000
:105760007B68D3F8BC321B68FA7B10469847BB684D
:105770000022C3F81422BB680022C3F818227B68F9
:105780001B7C002B0BD1FB7B124AD15CBB68D3F88E
:1057900004224FF40073786802F044FC09E0FB7BBC
:1057A0000C4AD15CBB68D3F804224023786802F02D
:1057B00039FCFB7B0133FB73FB7B002B3FF435AFE4
:1057C000002318461037BD4680BD00BF040C0020E2
:1057D000EC0B0020F00B0020F40B002080B584B00F
:1057E00000AF78600B46FB700023FB7357E0FB7B38
:1057F0002F4AD35C1946786802F04BFBFB7B2C4A9E
:10580000D35C03F00F02796813469B0013449B009E
:105810000B44243300221A80FB7B264AD35C1946B2
:10582000786802F036FBFB7B224AD35C03F00F0260
:10583000796813469B0013449B000B4403F5B27335
:1058400000221A80FB7B1C4AD35C1946786802F060
:1058500020FBFB7B184AD35C03F00F0279681346E8
:105860009B0013449B000B44243300221A80FB7BD3
:10587000114AD35C03F00F02796813469B0013446E
:105880009B000B44263300221A807B68D3F8BC327D
:105890005B68FA7B10469847FB7B0133FB73FB7B0D
:1058A000002BA4D0002318461037BD4680BD00BF92
:1058B000EC0B0020F00B0020F40B002090B587B01B
:1058C00000AF7860396000233B6100237B730023C5
:1058D0007B810023FB750023BB7500237B7515E0DE
:1058E0003B689B88DAB27B7D6D49CB5C9A4207D0DE
:1058F0003B689B88DAB27B7D6A49CB5C9A4202D1D5
:105900007B7DBB7505E07B7D01337B757B7D002B4B
:10591000E6D0BB7D4FF4077202FB03F3624A1344E7
:105920003B613B681B7803F06003002B4AD0202BBF
:1059300040F0AA803B68DB88002B38D03B681B789E
:105940005BB2002B1DDA7B68D3F8BC329C683B68E5
:105950005978BB7D5B023A691A443B68DB88B87DA5
:10596000A0473B68DB88072B28BF0723FB81BB7D53
:105970005B023A691344FA891946786802F0B7F86D
:1059800089E03B685A783B6983F800223B68DB88F2
:10599000DAB23B6983F80122BB7D5B023A69D11818
:1059A0003B68DB881A46786802F0CDF873E07B68C4
:1059B000D3F8BC329C683B685978B87D00233A68BC
:1059C000A04768E03B685B780B2B52D801A252F8E5
:1059D00023F000BF055A0008815A0008735A0008D6
:1059E000735A0008735A0008735A0008735A000863
:1059F000735A0008735A0008735A00082F5A000897
:105A0000595A00087B6893F89C32DBB2032B07D10C
:105A100007F10A0302221946786802F068F832E0BA
:105A20003968786801F0F2FF0323FB752BE07B688F
:105A300093F89C32DBB2032B07D107F10D0301224F
:105A40001946786802F053F81DE03968786801F06B
:105A5000DDFF0323FB7516E07B6893F89C32DBB215
:105A6000032B0FD03968786801F0D0FF0323FB7552
:105A700008E03968786801F0C9FF0323FB7502E08C
:105A800000BF08E000BF06E03968786801F0BEFF9B
:105A90000323FB7500BFFB7D18461C37BD4690BD38
:105AA000F80B0020FC0B0020040C002090B587B000
:105AB00000AF78600B46FB7000233B617B68D3F836
:105AC0001033FB600023FB750023BB750DE0FA78F3
:105AD000BB7D3449CB5C03F00F039A4202D1BB7DFE
